ARM GAS  /tmp/cc4UJZFE.s 			page 1


   1              		.cpu cortex-m3
   2              		.eabi_attribute 20, 1
   3              		.eabi_attribute 21, 1
   4              		.eabi_attribute 23, 3
   5              		.eabi_attribute 24, 1
   6              		.eabi_attribute 25, 1
   7              		.eabi_attribute 26, 1
   8              		.eabi_attribute 30, 1
   9              		.eabi_attribute 34, 1
  10              		.eabi_attribute 18, 4
  11              		.file	"stm32f1xx_hal_msp.c"
  12              		.text
  13              	.Ltext0:
  14              		.cfi_sections	.debug_frame
  15              		.section	.text.HAL_MspInit,"ax",%progbits
  16              		.align	1
  17              		.global	HAL_MspInit
  18              		.arch armv7-m
  19              		.syntax unified
  20              		.thumb
  21              		.thumb_func
  22              		.fpu softvfp
  24              	HAL_MspInit:
  25              	.LFB65:
  26              		.file 1 "Core/Src/stm32f1xx_hal_msp.c"
   1:Core/Src/stm32f1xx_hal_msp.c **** /* USER CODE BEGIN Header */
   2:Core/Src/stm32f1xx_hal_msp.c **** /**
   3:Core/Src/stm32f1xx_hal_msp.c ****   ******************************************************************************
   4:Core/Src/stm32f1xx_hal_msp.c ****   * File Name          : stm32f1xx_hal_msp.c
   5:Core/Src/stm32f1xx_hal_msp.c ****   * Description        : This file provides code for the MSP Initialization
   6:Core/Src/stm32f1xx_hal_msp.c ****   *                      and de-Initialization codes.
   7:Core/Src/stm32f1xx_hal_msp.c ****   ******************************************************************************
   8:Core/Src/stm32f1xx_hal_msp.c ****   * @attention
   9:Core/Src/stm32f1xx_hal_msp.c ****   *
  10:Core/Src/stm32f1xx_hal_msp.c ****   * <h2><center>&copy; Copyright (c) 2020 STMicroelectronics.
  11:Core/Src/stm32f1xx_hal_msp.c ****   * All rights reserved.</center></h2>
  12:Core/Src/stm32f1xx_hal_msp.c ****   *
  13:Core/Src/stm32f1xx_hal_msp.c ****   * This software component is licensed by ST under BSD 3-Clause license,
  14:Core/Src/stm32f1xx_hal_msp.c ****   * the "License"; You may not use this file except in compliance with the
  15:Core/Src/stm32f1xx_hal_msp.c ****   * License. You may obtain a copy of the License at:
  16:Core/Src/stm32f1xx_hal_msp.c ****   *                        opensource.org/licenses/BSD-3-Clause
  17:Core/Src/stm32f1xx_hal_msp.c ****   *
  18:Core/Src/stm32f1xx_hal_msp.c ****   ******************************************************************************
  19:Core/Src/stm32f1xx_hal_msp.c ****   */
  20:Core/Src/stm32f1xx_hal_msp.c **** /* USER CODE END Header */
  21:Core/Src/stm32f1xx_hal_msp.c **** 
  22:Core/Src/stm32f1xx_hal_msp.c **** /* Includes ------------------------------------------------------------------*/
  23:Core/Src/stm32f1xx_hal_msp.c **** #include "main.h"
  24:Core/Src/stm32f1xx_hal_msp.c **** /* USER CODE BEGIN Includes */
  25:Core/Src/stm32f1xx_hal_msp.c **** 
  26:Core/Src/stm32f1xx_hal_msp.c **** /* USER CODE END Includes */
  27:Core/Src/stm32f1xx_hal_msp.c **** 
  28:Core/Src/stm32f1xx_hal_msp.c **** /* Private typedef -----------------------------------------------------------*/
  29:Core/Src/stm32f1xx_hal_msp.c **** /* USER CODE BEGIN TD */
  30:Core/Src/stm32f1xx_hal_msp.c **** 
  31:Core/Src/stm32f1xx_hal_msp.c **** /* USER CODE END TD */
  32:Core/Src/stm32f1xx_hal_msp.c **** 
ARM GAS  /tmp/cc4UJZFE.s 			page 2


  33:Core/Src/stm32f1xx_hal_msp.c **** /* Private define ------------------------------------------------------------*/
  34:Core/Src/stm32f1xx_hal_msp.c **** /* USER CODE BEGIN Define */
  35:Core/Src/stm32f1xx_hal_msp.c **** 
  36:Core/Src/stm32f1xx_hal_msp.c **** /* USER CODE END Define */
  37:Core/Src/stm32f1xx_hal_msp.c **** 
  38:Core/Src/stm32f1xx_hal_msp.c **** /* Private macro -------------------------------------------------------------*/
  39:Core/Src/stm32f1xx_hal_msp.c **** /* USER CODE BEGIN Macro */
  40:Core/Src/stm32f1xx_hal_msp.c **** 
  41:Core/Src/stm32f1xx_hal_msp.c **** /* USER CODE END Macro */
  42:Core/Src/stm32f1xx_hal_msp.c **** 
  43:Core/Src/stm32f1xx_hal_msp.c **** /* Private variables ---------------------------------------------------------*/
  44:Core/Src/stm32f1xx_hal_msp.c **** /* USER CODE BEGIN PV */
  45:Core/Src/stm32f1xx_hal_msp.c **** 
  46:Core/Src/stm32f1xx_hal_msp.c **** /* USER CODE END PV */
  47:Core/Src/stm32f1xx_hal_msp.c **** 
  48:Core/Src/stm32f1xx_hal_msp.c **** /* Private function prototypes -----------------------------------------------*/
  49:Core/Src/stm32f1xx_hal_msp.c **** /* USER CODE BEGIN PFP */
  50:Core/Src/stm32f1xx_hal_msp.c **** 
  51:Core/Src/stm32f1xx_hal_msp.c **** /* USER CODE END PFP */
  52:Core/Src/stm32f1xx_hal_msp.c **** 
  53:Core/Src/stm32f1xx_hal_msp.c **** /* External functions --------------------------------------------------------*/
  54:Core/Src/stm32f1xx_hal_msp.c **** /* USER CODE BEGIN ExternalFunctions */
  55:Core/Src/stm32f1xx_hal_msp.c **** 
  56:Core/Src/stm32f1xx_hal_msp.c **** /* USER CODE END ExternalFunctions */
  57:Core/Src/stm32f1xx_hal_msp.c **** 
  58:Core/Src/stm32f1xx_hal_msp.c **** /* USER CODE BEGIN 0 */
  59:Core/Src/stm32f1xx_hal_msp.c **** 
  60:Core/Src/stm32f1xx_hal_msp.c **** /* USER CODE END 0 */
  61:Core/Src/stm32f1xx_hal_msp.c **** /**
  62:Core/Src/stm32f1xx_hal_msp.c ****   * Initializes the Global MSP.
  63:Core/Src/stm32f1xx_hal_msp.c ****   */
  64:Core/Src/stm32f1xx_hal_msp.c **** void HAL_MspInit(void)
  65:Core/Src/stm32f1xx_hal_msp.c **** {
  27              		.loc 1 65 1 view -0
  28              		.cfi_startproc
  29              		@ args = 0, pretend = 0, frame = 8
  30              		@ frame_needed = 0, uses_anonymous_args = 0
  31              		@ link register save eliminated.
  32 0000 82B0     		sub	sp, sp, #8
  33              	.LCFI0:
  34              		.cfi_def_cfa_offset 8
  66:Core/Src/stm32f1xx_hal_msp.c ****   /* USER CODE BEGIN MspInit 0 */
  67:Core/Src/stm32f1xx_hal_msp.c **** 
  68:Core/Src/stm32f1xx_hal_msp.c ****   /* USER CODE END MspInit 0 */
  69:Core/Src/stm32f1xx_hal_msp.c **** 
  70:Core/Src/stm32f1xx_hal_msp.c ****   __HAL_RCC_AFIO_CLK_ENABLE();
  35              		.loc 1 70 3 view .LVU1
  36              	.LBB2:
  37              		.loc 1 70 3 view .LVU2
  38              		.loc 1 70 3 view .LVU3
  39 0002 0E4B     		ldr	r3, .L3
  40 0004 9A69     		ldr	r2, [r3, #24]
  41 0006 42F00102 		orr	r2, r2, #1
  42 000a 9A61     		str	r2, [r3, #24]
  43              		.loc 1 70 3 view .LVU4
  44 000c 9A69     		ldr	r2, [r3, #24]
  45 000e 02F00102 		and	r2, r2, #1
ARM GAS  /tmp/cc4UJZFE.s 			page 3


  46 0012 0092     		str	r2, [sp]
  47              		.loc 1 70 3 view .LVU5
  48 0014 009A     		ldr	r2, [sp]
  49              	.LBE2:
  50              		.loc 1 70 3 view .LVU6
  71:Core/Src/stm32f1xx_hal_msp.c ****   __HAL_RCC_PWR_CLK_ENABLE();
  51              		.loc 1 71 3 view .LVU7
  52              	.LBB3:
  53              		.loc 1 71 3 view .LVU8
  54              		.loc 1 71 3 view .LVU9
  55 0016 DA69     		ldr	r2, [r3, #28]
  56 0018 42F08052 		orr	r2, r2, #268435456
  57 001c DA61     		str	r2, [r3, #28]
  58              		.loc 1 71 3 view .LVU10
  59 001e DB69     		ldr	r3, [r3, #28]
  60 0020 03F08053 		and	r3, r3, #268435456
  61 0024 0193     		str	r3, [sp, #4]
  62              		.loc 1 71 3 view .LVU11
  63 0026 019B     		ldr	r3, [sp, #4]
  64              	.LBE3:
  65              		.loc 1 71 3 view .LVU12
  72:Core/Src/stm32f1xx_hal_msp.c **** 
  73:Core/Src/stm32f1xx_hal_msp.c ****   /* System interrupt init*/
  74:Core/Src/stm32f1xx_hal_msp.c **** 
  75:Core/Src/stm32f1xx_hal_msp.c ****   /** NOJTAG: JTAG-DP Disabled and SW-DP Enabled
  76:Core/Src/stm32f1xx_hal_msp.c ****   */
  77:Core/Src/stm32f1xx_hal_msp.c ****   __HAL_AFIO_REMAP_SWJ_NOJTAG();
  66              		.loc 1 77 3 view .LVU13
  67              	.LBB4:
  68              		.loc 1 77 3 view .LVU14
  69 0028 054A     		ldr	r2, .L3+4
  70 002a 5368     		ldr	r3, [r2, #4]
  71              	.LVL0:
  72              		.loc 1 77 3 view .LVU15
  73 002c 23F0E063 		bic	r3, r3, #117440512
  74              	.LVL1:
  75              		.loc 1 77 3 view .LVU16
  76 0030 43F00073 		orr	r3, r3, #33554432
  77              	.LVL2:
  78              		.loc 1 77 3 view .LVU17
  79 0034 5360     		str	r3, [r2, #4]
  80              	.LBE4:
  81              		.loc 1 77 3 view .LVU18
  78:Core/Src/stm32f1xx_hal_msp.c **** 
  79:Core/Src/stm32f1xx_hal_msp.c ****   /* USER CODE BEGIN MspInit 1 */
  80:Core/Src/stm32f1xx_hal_msp.c **** 
  81:Core/Src/stm32f1xx_hal_msp.c ****   /* USER CODE END MspInit 1 */
  82:Core/Src/stm32f1xx_hal_msp.c **** }
  82              		.loc 1 82 1 is_stmt 0 view .LVU19
  83 0036 02B0     		add	sp, sp, #8
  84              	.LCFI1:
  85              		.cfi_def_cfa_offset 0
  86              		@ sp needed
  87 0038 7047     		bx	lr
  88              	.L4:
  89 003a 00BF     		.align	2
  90              	.L3:
ARM GAS  /tmp/cc4UJZFE.s 			page 4


  91 003c 00100240 		.word	1073876992
  92 0040 00000140 		.word	1073807360
  93              		.cfi_endproc
  94              	.LFE65:
  96              		.section	.text.HAL_I2C_MspInit,"ax",%progbits
  97              		.align	1
  98              		.global	HAL_I2C_MspInit
  99              		.syntax unified
 100              		.thumb
 101              		.thumb_func
 102              		.fpu softvfp
 104              	HAL_I2C_MspInit:
 105              	.LVL3:
 106              	.LFB66:
  83:Core/Src/stm32f1xx_hal_msp.c **** 
  84:Core/Src/stm32f1xx_hal_msp.c **** /**
  85:Core/Src/stm32f1xx_hal_msp.c **** * @brief I2C MSP Initialization
  86:Core/Src/stm32f1xx_hal_msp.c **** * This function configures the hardware resources used in this example
  87:Core/Src/stm32f1xx_hal_msp.c **** * @param hi2c: I2C handle pointer
  88:Core/Src/stm32f1xx_hal_msp.c **** * @retval None
  89:Core/Src/stm32f1xx_hal_msp.c **** */
  90:Core/Src/stm32f1xx_hal_msp.c **** void HAL_I2C_MspInit(I2C_HandleTypeDef* hi2c)
  91:Core/Src/stm32f1xx_hal_msp.c **** {
 107              		.loc 1 91 1 is_stmt 1 view -0
 108              		.cfi_startproc
 109              		@ args = 0, pretend = 0, frame = 24
 110              		@ frame_needed = 0, uses_anonymous_args = 0
 111              		.loc 1 91 1 is_stmt 0 view .LVU21
 112 0000 10B5     		push	{r4, lr}
 113              	.LCFI2:
 114              		.cfi_def_cfa_offset 8
 115              		.cfi_offset 4, -8
 116              		.cfi_offset 14, -4
 117 0002 86B0     		sub	sp, sp, #24
 118              	.LCFI3:
 119              		.cfi_def_cfa_offset 32
  92:Core/Src/stm32f1xx_hal_msp.c ****   GPIO_InitTypeDef GPIO_InitStruct = {0};
 120              		.loc 1 92 3 is_stmt 1 view .LVU22
 121              		.loc 1 92 20 is_stmt 0 view .LVU23
 122 0004 0023     		movs	r3, #0
 123 0006 0293     		str	r3, [sp, #8]
 124 0008 0393     		str	r3, [sp, #12]
 125 000a 0493     		str	r3, [sp, #16]
 126 000c 0593     		str	r3, [sp, #20]
  93:Core/Src/stm32f1xx_hal_msp.c ****   if(hi2c->Instance==I2C1)
 127              		.loc 1 93 3 is_stmt 1 view .LVU24
 128              		.loc 1 93 10 is_stmt 0 view .LVU25
 129 000e 0268     		ldr	r2, [r0]
 130              		.loc 1 93 5 view .LVU26
 131 0010 114B     		ldr	r3, .L9
 132 0012 9A42     		cmp	r2, r3
 133 0014 01D0     		beq	.L8
 134              	.LVL4:
 135              	.L5:
  94:Core/Src/stm32f1xx_hal_msp.c ****   {
  95:Core/Src/stm32f1xx_hal_msp.c ****   /* USER CODE BEGIN I2C1_MspInit 0 */
  96:Core/Src/stm32f1xx_hal_msp.c **** 
ARM GAS  /tmp/cc4UJZFE.s 			page 5


  97:Core/Src/stm32f1xx_hal_msp.c ****   /* USER CODE END I2C1_MspInit 0 */
  98:Core/Src/stm32f1xx_hal_msp.c **** 
  99:Core/Src/stm32f1xx_hal_msp.c ****     __HAL_RCC_GPIOB_CLK_ENABLE();
 100:Core/Src/stm32f1xx_hal_msp.c ****     /**I2C1 GPIO Configuration
 101:Core/Src/stm32f1xx_hal_msp.c ****     PB6     ------> I2C1_SCL
 102:Core/Src/stm32f1xx_hal_msp.c ****     PB7     ------> I2C1_SDA
 103:Core/Src/stm32f1xx_hal_msp.c ****     */
 104:Core/Src/stm32f1xx_hal_msp.c ****     GPIO_InitStruct.Pin = GPIO_PIN_6|GPIO_PIN_7;
 105:Core/Src/stm32f1xx_hal_msp.c ****     GPIO_InitStruct.Mode = GPIO_MODE_AF_OD;
 106:Core/Src/stm32f1xx_hal_msp.c ****     GPIO_InitStruct.Speed = GPIO_SPEED_FREQ_HIGH;
 107:Core/Src/stm32f1xx_hal_msp.c ****     HAL_GPIO_Init(GPIOB, &GPIO_InitStruct);
 108:Core/Src/stm32f1xx_hal_msp.c **** 
 109:Core/Src/stm32f1xx_hal_msp.c ****     /* Peripheral clock enable */
 110:Core/Src/stm32f1xx_hal_msp.c ****     __HAL_RCC_I2C1_CLK_ENABLE();
 111:Core/Src/stm32f1xx_hal_msp.c ****   /* USER CODE BEGIN I2C1_MspInit 1 */
 112:Core/Src/stm32f1xx_hal_msp.c **** 
 113:Core/Src/stm32f1xx_hal_msp.c ****   /* USER CODE END I2C1_MspInit 1 */
 114:Core/Src/stm32f1xx_hal_msp.c ****   }
 115:Core/Src/stm32f1xx_hal_msp.c **** 
 116:Core/Src/stm32f1xx_hal_msp.c **** }
 136              		.loc 1 116 1 view .LVU27
 137 0016 06B0     		add	sp, sp, #24
 138              	.LCFI4:
 139              		.cfi_remember_state
 140              		.cfi_def_cfa_offset 8
 141              		@ sp needed
 142 0018 10BD     		pop	{r4, pc}
 143              	.LVL5:
 144              	.L8:
 145              	.LCFI5:
 146              		.cfi_restore_state
  99:Core/Src/stm32f1xx_hal_msp.c ****     /**I2C1 GPIO Configuration
 147              		.loc 1 99 5 is_stmt 1 view .LVU28
 148              	.LBB5:
  99:Core/Src/stm32f1xx_hal_msp.c ****     /**I2C1 GPIO Configuration
 149              		.loc 1 99 5 view .LVU29
  99:Core/Src/stm32f1xx_hal_msp.c ****     /**I2C1 GPIO Configuration
 150              		.loc 1 99 5 view .LVU30
 151 001a 104C     		ldr	r4, .L9+4
 152 001c A369     		ldr	r3, [r4, #24]
 153 001e 43F00803 		orr	r3, r3, #8
 154 0022 A361     		str	r3, [r4, #24]
  99:Core/Src/stm32f1xx_hal_msp.c ****     /**I2C1 GPIO Configuration
 155              		.loc 1 99 5 view .LVU31
 156 0024 A369     		ldr	r3, [r4, #24]
 157 0026 03F00803 		and	r3, r3, #8
 158 002a 0093     		str	r3, [sp]
  99:Core/Src/stm32f1xx_hal_msp.c ****     /**I2C1 GPIO Configuration
 159              		.loc 1 99 5 view .LVU32
 160 002c 009B     		ldr	r3, [sp]
 161              	.LBE5:
  99:Core/Src/stm32f1xx_hal_msp.c ****     /**I2C1 GPIO Configuration
 162              		.loc 1 99 5 view .LVU33
 104:Core/Src/stm32f1xx_hal_msp.c ****     GPIO_InitStruct.Mode = GPIO_MODE_AF_OD;
 163              		.loc 1 104 5 view .LVU34
 104:Core/Src/stm32f1xx_hal_msp.c ****     GPIO_InitStruct.Mode = GPIO_MODE_AF_OD;
 164              		.loc 1 104 25 is_stmt 0 view .LVU35
ARM GAS  /tmp/cc4UJZFE.s 			page 6


 165 002e C023     		movs	r3, #192
 166 0030 0293     		str	r3, [sp, #8]
 105:Core/Src/stm32f1xx_hal_msp.c ****     GPIO_InitStruct.Speed = GPIO_SPEED_FREQ_HIGH;
 167              		.loc 1 105 5 is_stmt 1 view .LVU36
 105:Core/Src/stm32f1xx_hal_msp.c ****     GPIO_InitStruct.Speed = GPIO_SPEED_FREQ_HIGH;
 168              		.loc 1 105 26 is_stmt 0 view .LVU37
 169 0032 1223     		movs	r3, #18
 170 0034 0393     		str	r3, [sp, #12]
 106:Core/Src/stm32f1xx_hal_msp.c ****     HAL_GPIO_Init(GPIOB, &GPIO_InitStruct);
 171              		.loc 1 106 5 is_stmt 1 view .LVU38
 106:Core/Src/stm32f1xx_hal_msp.c ****     HAL_GPIO_Init(GPIOB, &GPIO_InitStruct);
 172              		.loc 1 106 27 is_stmt 0 view .LVU39
 173 0036 0323     		movs	r3, #3
 174 0038 0593     		str	r3, [sp, #20]
 107:Core/Src/stm32f1xx_hal_msp.c **** 
 175              		.loc 1 107 5 is_stmt 1 view .LVU40
 176 003a 02A9     		add	r1, sp, #8
 177 003c 0848     		ldr	r0, .L9+8
 178              	.LVL6:
 107:Core/Src/stm32f1xx_hal_msp.c **** 
 179              		.loc 1 107 5 is_stmt 0 view .LVU41
 180 003e FFF7FEFF 		bl	HAL_GPIO_Init
 181              	.LVL7:
 110:Core/Src/stm32f1xx_hal_msp.c ****   /* USER CODE BEGIN I2C1_MspInit 1 */
 182              		.loc 1 110 5 is_stmt 1 view .LVU42
 183              	.LBB6:
 110:Core/Src/stm32f1xx_hal_msp.c ****   /* USER CODE BEGIN I2C1_MspInit 1 */
 184              		.loc 1 110 5 view .LVU43
 110:Core/Src/stm32f1xx_hal_msp.c ****   /* USER CODE BEGIN I2C1_MspInit 1 */
 185              		.loc 1 110 5 view .LVU44
 186 0042 E369     		ldr	r3, [r4, #28]
 187 0044 43F40013 		orr	r3, r3, #2097152
 188 0048 E361     		str	r3, [r4, #28]
 110:Core/Src/stm32f1xx_hal_msp.c ****   /* USER CODE BEGIN I2C1_MspInit 1 */
 189              		.loc 1 110 5 view .LVU45
 190 004a E369     		ldr	r3, [r4, #28]
 191 004c 03F40013 		and	r3, r3, #2097152
 192 0050 0193     		str	r3, [sp, #4]
 110:Core/Src/stm32f1xx_hal_msp.c ****   /* USER CODE BEGIN I2C1_MspInit 1 */
 193              		.loc 1 110 5 view .LVU46
 194 0052 019B     		ldr	r3, [sp, #4]
 195              	.LBE6:
 110:Core/Src/stm32f1xx_hal_msp.c ****   /* USER CODE BEGIN I2C1_MspInit 1 */
 196              		.loc 1 110 5 view .LVU47
 197              		.loc 1 116 1 is_stmt 0 view .LVU48
 198 0054 DFE7     		b	.L5
 199              	.L10:
 200 0056 00BF     		.align	2
 201              	.L9:
 202 0058 00540040 		.word	1073763328
 203 005c 00100240 		.word	1073876992
 204 0060 000C0140 		.word	1073810432
 205              		.cfi_endproc
 206              	.LFE66:
 208              		.section	.text.HAL_I2C_MspDeInit,"ax",%progbits
 209              		.align	1
 210              		.global	HAL_I2C_MspDeInit
ARM GAS  /tmp/cc4UJZFE.s 			page 7


 211              		.syntax unified
 212              		.thumb
 213              		.thumb_func
 214              		.fpu softvfp
 216              	HAL_I2C_MspDeInit:
 217              	.LVL8:
 218              	.LFB67:
 117:Core/Src/stm32f1xx_hal_msp.c **** 
 118:Core/Src/stm32f1xx_hal_msp.c **** /**
 119:Core/Src/stm32f1xx_hal_msp.c **** * @brief I2C MSP De-Initialization
 120:Core/Src/stm32f1xx_hal_msp.c **** * This function freeze the hardware resources used in this example
 121:Core/Src/stm32f1xx_hal_msp.c **** * @param hi2c: I2C handle pointer
 122:Core/Src/stm32f1xx_hal_msp.c **** * @retval None
 123:Core/Src/stm32f1xx_hal_msp.c **** */
 124:Core/Src/stm32f1xx_hal_msp.c **** void HAL_I2C_MspDeInit(I2C_HandleTypeDef* hi2c)
 125:Core/Src/stm32f1xx_hal_msp.c **** {
 219              		.loc 1 125 1 is_stmt 1 view -0
 220              		.cfi_startproc
 221              		@ args = 0, pretend = 0, frame = 0
 222              		@ frame_needed = 0, uses_anonymous_args = 0
 126:Core/Src/stm32f1xx_hal_msp.c ****   if(hi2c->Instance==I2C1)
 223              		.loc 1 126 3 view .LVU50
 224              		.loc 1 126 10 is_stmt 0 view .LVU51
 225 0000 0268     		ldr	r2, [r0]
 226              		.loc 1 126 5 view .LVU52
 227 0002 0A4B     		ldr	r3, .L18
 228 0004 9A42     		cmp	r2, r3
 229 0006 00D0     		beq	.L17
 230 0008 7047     		bx	lr
 231              	.L17:
 125:Core/Src/stm32f1xx_hal_msp.c ****   if(hi2c->Instance==I2C1)
 232              		.loc 1 125 1 view .LVU53
 233 000a 10B5     		push	{r4, lr}
 234              	.LCFI6:
 235              		.cfi_def_cfa_offset 8
 236              		.cfi_offset 4, -8
 237              		.cfi_offset 14, -4
 127:Core/Src/stm32f1xx_hal_msp.c ****   {
 128:Core/Src/stm32f1xx_hal_msp.c ****   /* USER CODE BEGIN I2C1_MspDeInit 0 */
 129:Core/Src/stm32f1xx_hal_msp.c **** 
 130:Core/Src/stm32f1xx_hal_msp.c ****   /* USER CODE END I2C1_MspDeInit 0 */
 131:Core/Src/stm32f1xx_hal_msp.c ****     /* Peripheral clock disable */
 132:Core/Src/stm32f1xx_hal_msp.c ****     __HAL_RCC_I2C1_CLK_DISABLE();
 238              		.loc 1 132 5 is_stmt 1 view .LVU54
 239 000c 084A     		ldr	r2, .L18+4
 240 000e D369     		ldr	r3, [r2, #28]
 241 0010 23F40013 		bic	r3, r3, #2097152
 242 0014 D361     		str	r3, [r2, #28]
 133:Core/Src/stm32f1xx_hal_msp.c **** 
 134:Core/Src/stm32f1xx_hal_msp.c ****     /**I2C1 GPIO Configuration
 135:Core/Src/stm32f1xx_hal_msp.c ****     PB6     ------> I2C1_SCL
 136:Core/Src/stm32f1xx_hal_msp.c ****     PB7     ------> I2C1_SDA
 137:Core/Src/stm32f1xx_hal_msp.c ****     */
 138:Core/Src/stm32f1xx_hal_msp.c ****     HAL_GPIO_DeInit(GPIOB, GPIO_PIN_6);
 243              		.loc 1 138 5 view .LVU55
 244 0016 074C     		ldr	r4, .L18+8
 245 0018 4021     		movs	r1, #64
ARM GAS  /tmp/cc4UJZFE.s 			page 8


 246 001a 2046     		mov	r0, r4
 247              	.LVL9:
 248              		.loc 1 138 5 is_stmt 0 view .LVU56
 249 001c FFF7FEFF 		bl	HAL_GPIO_DeInit
 250              	.LVL10:
 139:Core/Src/stm32f1xx_hal_msp.c **** 
 140:Core/Src/stm32f1xx_hal_msp.c ****     HAL_GPIO_DeInit(GPIOB, GPIO_PIN_7);
 251              		.loc 1 140 5 is_stmt 1 view .LVU57
 252 0020 8021     		movs	r1, #128
 253 0022 2046     		mov	r0, r4
 254 0024 FFF7FEFF 		bl	HAL_GPIO_DeInit
 255              	.LVL11:
 141:Core/Src/stm32f1xx_hal_msp.c **** 
 142:Core/Src/stm32f1xx_hal_msp.c ****   /* USER CODE BEGIN I2C1_MspDeInit 1 */
 143:Core/Src/stm32f1xx_hal_msp.c **** 
 144:Core/Src/stm32f1xx_hal_msp.c ****   /* USER CODE END I2C1_MspDeInit 1 */
 145:Core/Src/stm32f1xx_hal_msp.c ****   }
 146:Core/Src/stm32f1xx_hal_msp.c **** 
 147:Core/Src/stm32f1xx_hal_msp.c **** }
 256              		.loc 1 147 1 is_stmt 0 view .LVU58
 257 0028 10BD     		pop	{r4, pc}
 258              	.L19:
 259 002a 00BF     		.align	2
 260              	.L18:
 261 002c 00540040 		.word	1073763328
 262 0030 00100240 		.word	1073876992
 263 0034 000C0140 		.word	1073810432
 264              		.cfi_endproc
 265              	.LFE67:
 267              		.section	.text.HAL_TIM_Base_MspInit,"ax",%progbits
 268              		.align	1
 269              		.global	HAL_TIM_Base_MspInit
 270              		.syntax unified
 271              		.thumb
 272              		.thumb_func
 273              		.fpu softvfp
 275              	HAL_TIM_Base_MspInit:
 276              	.LVL12:
 277              	.LFB68:
 148:Core/Src/stm32f1xx_hal_msp.c **** 
 149:Core/Src/stm32f1xx_hal_msp.c **** /**
 150:Core/Src/stm32f1xx_hal_msp.c **** * @brief TIM_Base MSP Initialization
 151:Core/Src/stm32f1xx_hal_msp.c **** * This function configures the hardware resources used in this example
 152:Core/Src/stm32f1xx_hal_msp.c **** * @param htim_base: TIM_Base handle pointer
 153:Core/Src/stm32f1xx_hal_msp.c **** * @retval None
 154:Core/Src/stm32f1xx_hal_msp.c **** */
 155:Core/Src/stm32f1xx_hal_msp.c **** void HAL_TIM_Base_MspInit(TIM_HandleTypeDef* htim_base)
 156:Core/Src/stm32f1xx_hal_msp.c **** {
 278              		.loc 1 156 1 is_stmt 1 view -0
 279              		.cfi_startproc
 280              		@ args = 0, pretend = 0, frame = 8
 281              		@ frame_needed = 0, uses_anonymous_args = 0
 282              		@ link register save eliminated.
 157:Core/Src/stm32f1xx_hal_msp.c ****   if(htim_base->Instance==TIM1)
 283              		.loc 1 157 3 view .LVU60
 284              		.loc 1 157 15 is_stmt 0 view .LVU61
 285 0000 0268     		ldr	r2, [r0]
ARM GAS  /tmp/cc4UJZFE.s 			page 9


 286              		.loc 1 157 5 view .LVU62
 287 0002 094B     		ldr	r3, .L27
 288 0004 9A42     		cmp	r2, r3
 289 0006 00D0     		beq	.L26
 290 0008 7047     		bx	lr
 291              	.L26:
 156:Core/Src/stm32f1xx_hal_msp.c ****   if(htim_base->Instance==TIM1)
 292              		.loc 1 156 1 view .LVU63
 293 000a 82B0     		sub	sp, sp, #8
 294              	.LCFI7:
 295              		.cfi_def_cfa_offset 8
 158:Core/Src/stm32f1xx_hal_msp.c ****   {
 159:Core/Src/stm32f1xx_hal_msp.c ****   /* USER CODE BEGIN TIM1_MspInit 0 */
 160:Core/Src/stm32f1xx_hal_msp.c **** 
 161:Core/Src/stm32f1xx_hal_msp.c ****   /* USER CODE END TIM1_MspInit 0 */
 162:Core/Src/stm32f1xx_hal_msp.c ****     /* Peripheral clock enable */
 163:Core/Src/stm32f1xx_hal_msp.c ****     __HAL_RCC_TIM1_CLK_ENABLE();
 296              		.loc 1 163 5 is_stmt 1 view .LVU64
 297              	.LBB7:
 298              		.loc 1 163 5 view .LVU65
 299              		.loc 1 163 5 view .LVU66
 300 000c 03F56443 		add	r3, r3, #58368
 301 0010 9A69     		ldr	r2, [r3, #24]
 302 0012 42F40062 		orr	r2, r2, #2048
 303 0016 9A61     		str	r2, [r3, #24]
 304              		.loc 1 163 5 view .LVU67
 305 0018 9B69     		ldr	r3, [r3, #24]
 306 001a 03F40063 		and	r3, r3, #2048
 307 001e 0193     		str	r3, [sp, #4]
 308              		.loc 1 163 5 view .LVU68
 309 0020 019B     		ldr	r3, [sp, #4]
 310              	.LBE7:
 311              		.loc 1 163 5 view .LVU69
 164:Core/Src/stm32f1xx_hal_msp.c ****   /* USER CODE BEGIN TIM1_MspInit 1 */
 165:Core/Src/stm32f1xx_hal_msp.c **** 
 166:Core/Src/stm32f1xx_hal_msp.c ****   /* USER CODE END TIM1_MspInit 1 */
 167:Core/Src/stm32f1xx_hal_msp.c ****   }
 168:Core/Src/stm32f1xx_hal_msp.c **** 
 169:Core/Src/stm32f1xx_hal_msp.c **** }
 312              		.loc 1 169 1 is_stmt 0 view .LVU70
 313 0022 02B0     		add	sp, sp, #8
 314              	.LCFI8:
 315              		.cfi_def_cfa_offset 0
 316              		@ sp needed
 317 0024 7047     		bx	lr
 318              	.L28:
 319 0026 00BF     		.align	2
 320              	.L27:
 321 0028 002C0140 		.word	1073818624
 322              		.cfi_endproc
 323              	.LFE68:
 325              		.section	.text.HAL_TIM_Base_MspDeInit,"ax",%progbits
 326              		.align	1
 327              		.global	HAL_TIM_Base_MspDeInit
 328              		.syntax unified
 329              		.thumb
 330              		.thumb_func
ARM GAS  /tmp/cc4UJZFE.s 			page 10


 331              		.fpu softvfp
 333              	HAL_TIM_Base_MspDeInit:
 334              	.LVL13:
 335              	.LFB69:
 170:Core/Src/stm32f1xx_hal_msp.c **** 
 171:Core/Src/stm32f1xx_hal_msp.c **** /**
 172:Core/Src/stm32f1xx_hal_msp.c **** * @brief TIM_Base MSP De-Initialization
 173:Core/Src/stm32f1xx_hal_msp.c **** * This function freeze the hardware resources used in this example
 174:Core/Src/stm32f1xx_hal_msp.c **** * @param htim_base: TIM_Base handle pointer
 175:Core/Src/stm32f1xx_hal_msp.c **** * @retval None
 176:Core/Src/stm32f1xx_hal_msp.c **** */
 177:Core/Src/stm32f1xx_hal_msp.c **** void HAL_TIM_Base_MspDeInit(TIM_HandleTypeDef* htim_base)
 178:Core/Src/stm32f1xx_hal_msp.c **** {
 336              		.loc 1 178 1 is_stmt 1 view -0
 337              		.cfi_startproc
 338              		@ args = 0, pretend = 0, frame = 0
 339              		@ frame_needed = 0, uses_anonymous_args = 0
 340              		@ link register save eliminated.
 179:Core/Src/stm32f1xx_hal_msp.c ****   if(htim_base->Instance==TIM1)
 341              		.loc 1 179 3 view .LVU72
 342              		.loc 1 179 15 is_stmt 0 view .LVU73
 343 0000 0268     		ldr	r2, [r0]
 344              		.loc 1 179 5 view .LVU74
 345 0002 054B     		ldr	r3, .L32
 346 0004 9A42     		cmp	r2, r3
 347 0006 00D0     		beq	.L31
 348              	.L29:
 180:Core/Src/stm32f1xx_hal_msp.c ****   {
 181:Core/Src/stm32f1xx_hal_msp.c ****   /* USER CODE BEGIN TIM1_MspDeInit 0 */
 182:Core/Src/stm32f1xx_hal_msp.c **** 
 183:Core/Src/stm32f1xx_hal_msp.c ****   /* USER CODE END TIM1_MspDeInit 0 */
 184:Core/Src/stm32f1xx_hal_msp.c ****     /* Peripheral clock disable */
 185:Core/Src/stm32f1xx_hal_msp.c ****     __HAL_RCC_TIM1_CLK_DISABLE();
 186:Core/Src/stm32f1xx_hal_msp.c ****   /* USER CODE BEGIN TIM1_MspDeInit 1 */
 187:Core/Src/stm32f1xx_hal_msp.c **** 
 188:Core/Src/stm32f1xx_hal_msp.c ****   /* USER CODE END TIM1_MspDeInit 1 */
 189:Core/Src/stm32f1xx_hal_msp.c ****   }
 190:Core/Src/stm32f1xx_hal_msp.c **** 
 191:Core/Src/stm32f1xx_hal_msp.c **** }
 349              		.loc 1 191 1 view .LVU75
 350 0008 7047     		bx	lr
 351              	.L31:
 185:Core/Src/stm32f1xx_hal_msp.c ****   /* USER CODE BEGIN TIM1_MspDeInit 1 */
 352              		.loc 1 185 5 is_stmt 1 view .LVU76
 353 000a 044A     		ldr	r2, .L32+4
 354 000c 9369     		ldr	r3, [r2, #24]
 355 000e 23F40063 		bic	r3, r3, #2048
 356 0012 9361     		str	r3, [r2, #24]
 357              		.loc 1 191 1 is_stmt 0 view .LVU77
 358 0014 F8E7     		b	.L29
 359              	.L33:
 360 0016 00BF     		.align	2
 361              	.L32:
 362 0018 002C0140 		.word	1073818624
 363 001c 00100240 		.word	1073876992
 364              		.cfi_endproc
 365              	.LFE69:
ARM GAS  /tmp/cc4UJZFE.s 			page 11


 367              		.section	.text.HAL_UART_MspInit,"ax",%progbits
 368              		.align	1
 369              		.global	HAL_UART_MspInit
 370              		.syntax unified
 371              		.thumb
 372              		.thumb_func
 373              		.fpu softvfp
 375              	HAL_UART_MspInit:
 376              	.LVL14:
 377              	.LFB70:
 192:Core/Src/stm32f1xx_hal_msp.c **** 
 193:Core/Src/stm32f1xx_hal_msp.c **** /**
 194:Core/Src/stm32f1xx_hal_msp.c **** * @brief UART MSP Initialization
 195:Core/Src/stm32f1xx_hal_msp.c **** * This function configures the hardware resources used in this example
 196:Core/Src/stm32f1xx_hal_msp.c **** * @param huart: UART handle pointer
 197:Core/Src/stm32f1xx_hal_msp.c **** * @retval None
 198:Core/Src/stm32f1xx_hal_msp.c **** */
 199:Core/Src/stm32f1xx_hal_msp.c **** void HAL_UART_MspInit(UART_HandleTypeDef* huart)
 200:Core/Src/stm32f1xx_hal_msp.c **** {
 378              		.loc 1 200 1 is_stmt 1 view -0
 379              		.cfi_startproc
 380              		@ args = 0, pretend = 0, frame = 24
 381              		@ frame_needed = 0, uses_anonymous_args = 0
 382              		.loc 1 200 1 is_stmt 0 view .LVU79
 383 0000 10B5     		push	{r4, lr}
 384              	.LCFI9:
 385              		.cfi_def_cfa_offset 8
 386              		.cfi_offset 4, -8
 387              		.cfi_offset 14, -4
 388 0002 86B0     		sub	sp, sp, #24
 389              	.LCFI10:
 390              		.cfi_def_cfa_offset 32
 201:Core/Src/stm32f1xx_hal_msp.c ****   GPIO_InitTypeDef GPIO_InitStruct = {0};
 391              		.loc 1 201 3 is_stmt 1 view .LVU80
 392              		.loc 1 201 20 is_stmt 0 view .LVU81
 393 0004 0023     		movs	r3, #0
 394 0006 0293     		str	r3, [sp, #8]
 395 0008 0393     		str	r3, [sp, #12]
 396 000a 0493     		str	r3, [sp, #16]
 397 000c 0593     		str	r3, [sp, #20]
 202:Core/Src/stm32f1xx_hal_msp.c ****   if(huart->Instance==USART2)
 398              		.loc 1 202 3 is_stmt 1 view .LVU82
 399              		.loc 1 202 11 is_stmt 0 view .LVU83
 400 000e 0268     		ldr	r2, [r0]
 401              		.loc 1 202 5 view .LVU84
 402 0010 164B     		ldr	r3, .L38
 403 0012 9A42     		cmp	r2, r3
 404 0014 01D0     		beq	.L37
 405              	.LVL15:
 406              	.L34:
 203:Core/Src/stm32f1xx_hal_msp.c ****   {
 204:Core/Src/stm32f1xx_hal_msp.c ****   /* USER CODE BEGIN USART2_MspInit 0 */
 205:Core/Src/stm32f1xx_hal_msp.c **** 
 206:Core/Src/stm32f1xx_hal_msp.c ****   /* USER CODE END USART2_MspInit 0 */
 207:Core/Src/stm32f1xx_hal_msp.c ****     /* Peripheral clock enable */
 208:Core/Src/stm32f1xx_hal_msp.c ****     __HAL_RCC_USART2_CLK_ENABLE();
 209:Core/Src/stm32f1xx_hal_msp.c **** 
ARM GAS  /tmp/cc4UJZFE.s 			page 12


 210:Core/Src/stm32f1xx_hal_msp.c ****     __HAL_RCC_GPIOA_CLK_ENABLE();
 211:Core/Src/stm32f1xx_hal_msp.c ****     /**USART2 GPIO Configuration
 212:Core/Src/stm32f1xx_hal_msp.c ****     PA2     ------> USART2_TX
 213:Core/Src/stm32f1xx_hal_msp.c ****     PA3     ------> USART2_RX
 214:Core/Src/stm32f1xx_hal_msp.c ****     */
 215:Core/Src/stm32f1xx_hal_msp.c ****     GPIO_InitStruct.Pin = GPIO_PIN_2;
 216:Core/Src/stm32f1xx_hal_msp.c ****     GPIO_InitStruct.Mode = GPIO_MODE_AF_PP;
 217:Core/Src/stm32f1xx_hal_msp.c ****     GPIO_InitStruct.Speed = GPIO_SPEED_FREQ_HIGH;
 218:Core/Src/stm32f1xx_hal_msp.c ****     HAL_GPIO_Init(GPIOA, &GPIO_InitStruct);
 219:Core/Src/stm32f1xx_hal_msp.c **** 
 220:Core/Src/stm32f1xx_hal_msp.c ****     GPIO_InitStruct.Pin = GPIO_PIN_3;
 221:Core/Src/stm32f1xx_hal_msp.c ****     GPIO_InitStruct.Mode = GPIO_MODE_INPUT;
 222:Core/Src/stm32f1xx_hal_msp.c ****     GPIO_InitStruct.Pull = GPIO_NOPULL;
 223:Core/Src/stm32f1xx_hal_msp.c ****     HAL_GPIO_Init(GPIOA, &GPIO_InitStruct);
 224:Core/Src/stm32f1xx_hal_msp.c **** 
 225:Core/Src/stm32f1xx_hal_msp.c ****   /* USER CODE BEGIN USART2_MspInit 1 */
 226:Core/Src/stm32f1xx_hal_msp.c **** 
 227:Core/Src/stm32f1xx_hal_msp.c ****   /* USER CODE END USART2_MspInit 1 */
 228:Core/Src/stm32f1xx_hal_msp.c ****   }
 229:Core/Src/stm32f1xx_hal_msp.c **** 
 230:Core/Src/stm32f1xx_hal_msp.c **** }
 407              		.loc 1 230 1 view .LVU85
 408 0016 06B0     		add	sp, sp, #24
 409              	.LCFI11:
 410              		.cfi_remember_state
 411              		.cfi_def_cfa_offset 8
 412              		@ sp needed
 413 0018 10BD     		pop	{r4, pc}
 414              	.LVL16:
 415              	.L37:
 416              	.LCFI12:
 417              		.cfi_restore_state
 208:Core/Src/stm32f1xx_hal_msp.c **** 
 418              		.loc 1 208 5 is_stmt 1 view .LVU86
 419              	.LBB8:
 208:Core/Src/stm32f1xx_hal_msp.c **** 
 420              		.loc 1 208 5 view .LVU87
 208:Core/Src/stm32f1xx_hal_msp.c **** 
 421              		.loc 1 208 5 view .LVU88
 422 001a 03F5E633 		add	r3, r3, #117760
 423 001e DA69     		ldr	r2, [r3, #28]
 424 0020 42F40032 		orr	r2, r2, #131072
 425 0024 DA61     		str	r2, [r3, #28]
 208:Core/Src/stm32f1xx_hal_msp.c **** 
 426              		.loc 1 208 5 view .LVU89
 427 0026 DA69     		ldr	r2, [r3, #28]
 428 0028 02F40032 		and	r2, r2, #131072
 429 002c 0092     		str	r2, [sp]
 208:Core/Src/stm32f1xx_hal_msp.c **** 
 430              		.loc 1 208 5 view .LVU90
 431 002e 009A     		ldr	r2, [sp]
 432              	.LBE8:
 208:Core/Src/stm32f1xx_hal_msp.c **** 
 433              		.loc 1 208 5 view .LVU91
 210:Core/Src/stm32f1xx_hal_msp.c ****     /**USART2 GPIO Configuration
 434              		.loc 1 210 5 view .LVU92
 435              	.LBB9:
ARM GAS  /tmp/cc4UJZFE.s 			page 13


 210:Core/Src/stm32f1xx_hal_msp.c ****     /**USART2 GPIO Configuration
 436              		.loc 1 210 5 view .LVU93
 210:Core/Src/stm32f1xx_hal_msp.c ****     /**USART2 GPIO Configuration
 437              		.loc 1 210 5 view .LVU94
 438 0030 9A69     		ldr	r2, [r3, #24]
 439 0032 42F00402 		orr	r2, r2, #4
 440 0036 9A61     		str	r2, [r3, #24]
 210:Core/Src/stm32f1xx_hal_msp.c ****     /**USART2 GPIO Configuration
 441              		.loc 1 210 5 view .LVU95
 442 0038 9B69     		ldr	r3, [r3, #24]
 443 003a 03F00403 		and	r3, r3, #4
 444 003e 0193     		str	r3, [sp, #4]
 210:Core/Src/stm32f1xx_hal_msp.c ****     /**USART2 GPIO Configuration
 445              		.loc 1 210 5 view .LVU96
 446 0040 019B     		ldr	r3, [sp, #4]
 447              	.LBE9:
 210:Core/Src/stm32f1xx_hal_msp.c ****     /**USART2 GPIO Configuration
 448              		.loc 1 210 5 view .LVU97
 215:Core/Src/stm32f1xx_hal_msp.c ****     GPIO_InitStruct.Mode = GPIO_MODE_AF_PP;
 449              		.loc 1 215 5 view .LVU98
 215:Core/Src/stm32f1xx_hal_msp.c ****     GPIO_InitStruct.Mode = GPIO_MODE_AF_PP;
 450              		.loc 1 215 25 is_stmt 0 view .LVU99
 451 0042 0423     		movs	r3, #4
 452 0044 0293     		str	r3, [sp, #8]
 216:Core/Src/stm32f1xx_hal_msp.c ****     GPIO_InitStruct.Speed = GPIO_SPEED_FREQ_HIGH;
 453              		.loc 1 216 5 is_stmt 1 view .LVU100
 216:Core/Src/stm32f1xx_hal_msp.c ****     GPIO_InitStruct.Speed = GPIO_SPEED_FREQ_HIGH;
 454              		.loc 1 216 26 is_stmt 0 view .LVU101
 455 0046 0223     		movs	r3, #2
 456 0048 0393     		str	r3, [sp, #12]
 217:Core/Src/stm32f1xx_hal_msp.c ****     HAL_GPIO_Init(GPIOA, &GPIO_InitStruct);
 457              		.loc 1 217 5 is_stmt 1 view .LVU102
 217:Core/Src/stm32f1xx_hal_msp.c ****     HAL_GPIO_Init(GPIOA, &GPIO_InitStruct);
 458              		.loc 1 217 27 is_stmt 0 view .LVU103
 459 004a 0323     		movs	r3, #3
 460 004c 0593     		str	r3, [sp, #20]
 218:Core/Src/stm32f1xx_hal_msp.c **** 
 461              		.loc 1 218 5 is_stmt 1 view .LVU104
 462 004e 084C     		ldr	r4, .L38+4
 463 0050 02A9     		add	r1, sp, #8
 464 0052 2046     		mov	r0, r4
 465              	.LVL17:
 218:Core/Src/stm32f1xx_hal_msp.c **** 
 466              		.loc 1 218 5 is_stmt 0 view .LVU105
 467 0054 FFF7FEFF 		bl	HAL_GPIO_Init
 468              	.LVL18:
 220:Core/Src/stm32f1xx_hal_msp.c ****     GPIO_InitStruct.Mode = GPIO_MODE_INPUT;
 469              		.loc 1 220 5 is_stmt 1 view .LVU106
 220:Core/Src/stm32f1xx_hal_msp.c ****     GPIO_InitStruct.Mode = GPIO_MODE_INPUT;
 470              		.loc 1 220 25 is_stmt 0 view .LVU107
 471 0058 0823     		movs	r3, #8
 472 005a 0293     		str	r3, [sp, #8]
 221:Core/Src/stm32f1xx_hal_msp.c ****     GPIO_InitStruct.Pull = GPIO_NOPULL;
 473              		.loc 1 221 5 is_stmt 1 view .LVU108
 221:Core/Src/stm32f1xx_hal_msp.c ****     GPIO_InitStruct.Pull = GPIO_NOPULL;
 474              		.loc 1 221 26 is_stmt 0 view .LVU109
 475 005c 0023     		movs	r3, #0
ARM GAS  /tmp/cc4UJZFE.s 			page 14


 476 005e 0393     		str	r3, [sp, #12]
 222:Core/Src/stm32f1xx_hal_msp.c ****     HAL_GPIO_Init(GPIOA, &GPIO_InitStruct);
 477              		.loc 1 222 5 is_stmt 1 view .LVU110
 222:Core/Src/stm32f1xx_hal_msp.c ****     HAL_GPIO_Init(GPIOA, &GPIO_InitStruct);
 478              		.loc 1 222 26 is_stmt 0 view .LVU111
 479 0060 0493     		str	r3, [sp, #16]
 223:Core/Src/stm32f1xx_hal_msp.c **** 
 480              		.loc 1 223 5 is_stmt 1 view .LVU112
 481 0062 02A9     		add	r1, sp, #8
 482 0064 2046     		mov	r0, r4
 483 0066 FFF7FEFF 		bl	HAL_GPIO_Init
 484              	.LVL19:
 485              		.loc 1 230 1 is_stmt 0 view .LVU113
 486 006a D4E7     		b	.L34
 487              	.L39:
 488              		.align	2
 489              	.L38:
 490 006c 00440040 		.word	1073759232
 491 0070 00080140 		.word	1073809408
 492              		.cfi_endproc
 493              	.LFE70:
 495              		.section	.text.HAL_UART_MspDeInit,"ax",%progbits
 496              		.align	1
 497              		.global	HAL_UART_MspDeInit
 498              		.syntax unified
 499              		.thumb
 500              		.thumb_func
 501              		.fpu softvfp
 503              	HAL_UART_MspDeInit:
 504              	.LVL20:
 505              	.LFB71:
 231:Core/Src/stm32f1xx_hal_msp.c **** 
 232:Core/Src/stm32f1xx_hal_msp.c **** /**
 233:Core/Src/stm32f1xx_hal_msp.c **** * @brief UART MSP De-Initialization
 234:Core/Src/stm32f1xx_hal_msp.c **** * This function freeze the hardware resources used in this example
 235:Core/Src/stm32f1xx_hal_msp.c **** * @param huart: UART handle pointer
 236:Core/Src/stm32f1xx_hal_msp.c **** * @retval None
 237:Core/Src/stm32f1xx_hal_msp.c **** */
 238:Core/Src/stm32f1xx_hal_msp.c **** void HAL_UART_MspDeInit(UART_HandleTypeDef* huart)
 239:Core/Src/stm32f1xx_hal_msp.c **** {
 506              		.loc 1 239 1 is_stmt 1 view -0
 507              		.cfi_startproc
 508              		@ args = 0, pretend = 0, frame = 0
 509              		@ frame_needed = 0, uses_anonymous_args = 0
 510              		.loc 1 239 1 is_stmt 0 view .LVU115
 511 0000 08B5     		push	{r3, lr}
 512              	.LCFI13:
 513              		.cfi_def_cfa_offset 8
 514              		.cfi_offset 3, -8
 515              		.cfi_offset 14, -4
 240:Core/Src/stm32f1xx_hal_msp.c ****   if(huart->Instance==USART2)
 516              		.loc 1 240 3 is_stmt 1 view .LVU116
 517              		.loc 1 240 11 is_stmt 0 view .LVU117
 518 0002 0268     		ldr	r2, [r0]
 519              		.loc 1 240 5 view .LVU118
 520 0004 064B     		ldr	r3, .L44
 521 0006 9A42     		cmp	r2, r3
ARM GAS  /tmp/cc4UJZFE.s 			page 15


 522 0008 00D0     		beq	.L43
 523              	.LVL21:
 524              	.L40:
 241:Core/Src/stm32f1xx_hal_msp.c ****   {
 242:Core/Src/stm32f1xx_hal_msp.c ****   /* USER CODE BEGIN USART2_MspDeInit 0 */
 243:Core/Src/stm32f1xx_hal_msp.c **** 
 244:Core/Src/stm32f1xx_hal_msp.c ****   /* USER CODE END USART2_MspDeInit 0 */
 245:Core/Src/stm32f1xx_hal_msp.c ****     /* Peripheral clock disable */
 246:Core/Src/stm32f1xx_hal_msp.c ****     __HAL_RCC_USART2_CLK_DISABLE();
 247:Core/Src/stm32f1xx_hal_msp.c **** 
 248:Core/Src/stm32f1xx_hal_msp.c ****     /**USART2 GPIO Configuration
 249:Core/Src/stm32f1xx_hal_msp.c ****     PA2     ------> USART2_TX
 250:Core/Src/stm32f1xx_hal_msp.c ****     PA3     ------> USART2_RX
 251:Core/Src/stm32f1xx_hal_msp.c ****     */
 252:Core/Src/stm32f1xx_hal_msp.c ****     HAL_GPIO_DeInit(GPIOA, GPIO_PIN_2|GPIO_PIN_3);
 253:Core/Src/stm32f1xx_hal_msp.c **** 
 254:Core/Src/stm32f1xx_hal_msp.c ****   /* USER CODE BEGIN USART2_MspDeInit 1 */
 255:Core/Src/stm32f1xx_hal_msp.c **** 
 256:Core/Src/stm32f1xx_hal_msp.c ****   /* USER CODE END USART2_MspDeInit 1 */
 257:Core/Src/stm32f1xx_hal_msp.c ****   }
 258:Core/Src/stm32f1xx_hal_msp.c **** 
 259:Core/Src/stm32f1xx_hal_msp.c **** }
 525              		.loc 1 259 1 view .LVU119
 526 000a 08BD     		pop	{r3, pc}
 527              	.LVL22:
 528              	.L43:
 246:Core/Src/stm32f1xx_hal_msp.c **** 
 529              		.loc 1 246 5 is_stmt 1 view .LVU120
 530 000c 054A     		ldr	r2, .L44+4
 531 000e D369     		ldr	r3, [r2, #28]
 532 0010 23F40033 		bic	r3, r3, #131072
 533 0014 D361     		str	r3, [r2, #28]
 252:Core/Src/stm32f1xx_hal_msp.c **** 
 534              		.loc 1 252 5 view .LVU121
 535 0016 0C21     		movs	r1, #12
 536 0018 0348     		ldr	r0, .L44+8
 537              	.LVL23:
 252:Core/Src/stm32f1xx_hal_msp.c **** 
 538              		.loc 1 252 5 is_stmt 0 view .LVU122
 539 001a FFF7FEFF 		bl	HAL_GPIO_DeInit
 540              	.LVL24:
 541              		.loc 1 259 1 view .LVU123
 542 001e F4E7     		b	.L40
 543              	.L45:
 544              		.align	2
 545              	.L44:
 546 0020 00440040 		.word	1073759232
 547 0024 00100240 		.word	1073876992
 548 0028 00080140 		.word	1073809408
 549              		.cfi_endproc
 550              	.LFE71:
 552              		.text
 553              	.Letext0:
 554              		.file 2 "/usr/arm-none-eabi/include/machine/_default_types.h"
 555              		.file 3 "/usr/arm-none-eabi/include/sys/_stdint.h"
 556              		.file 4 "Drivers/CMSIS/Device/ST/STM32F1xx/Include/stm32f103xb.h"
 557              		.file 5 "Drivers/STM32F1xx_HAL_Driver/Inc/stm32f1xx_hal_def.h"
ARM GAS  /tmp/cc4UJZFE.s 			page 16


 558              		.file 6 "Drivers/STM32F1xx_HAL_Driver/Inc/stm32f1xx_hal_gpio.h"
 559              		.file 7 "Drivers/STM32F1xx_HAL_Driver/Inc/stm32f1xx_hal_dma.h"
 560              		.file 8 "Drivers/STM32F1xx_HAL_Driver/Inc/stm32f1xx_hal_i2c.h"
 561              		.file 9 "Drivers/STM32F1xx_HAL_Driver/Inc/stm32f1xx_hal_tim.h"
 562              		.file 10 "Drivers/STM32F1xx_HAL_Driver/Inc/stm32f1xx_hal_uart.h"
ARM GAS  /tmp/cc4UJZFE.s 			page 17


DEFINED SYMBOLS
                            *ABS*:0000000000000000 stm32f1xx_hal_msp.c
     /tmp/cc4UJZFE.s:16     .text.HAL_MspInit:0000000000000000 $t
     /tmp/cc4UJZFE.s:24     .text.HAL_MspInit:0000000000000000 HAL_MspInit
     /tmp/cc4UJZFE.s:91     .text.HAL_MspInit:000000000000003c $d
     /tmp/cc4UJZFE.s:97     .text.HAL_I2C_MspInit:0000000000000000 $t
     /tmp/cc4UJZFE.s:104    .text.HAL_I2C_MspInit:0000000000000000 HAL_I2C_MspInit
     /tmp/cc4UJZFE.s:202    .text.HAL_I2C_MspInit:0000000000000058 $d
     /tmp/cc4UJZFE.s:209    .text.HAL_I2C_MspDeInit:0000000000000000 $t
     /tmp/cc4UJZFE.s:216    .text.HAL_I2C_MspDeInit:0000000000000000 HAL_I2C_MspDeInit
     /tmp/cc4UJZFE.s:261    .text.HAL_I2C_MspDeInit:000000000000002c $d
     /tmp/cc4UJZFE.s:268    .text.HAL_TIM_Base_MspInit:0000000000000000 $t
     /tmp/cc4UJZFE.s:275    .text.HAL_TIM_Base_MspInit:0000000000000000 HAL_TIM_Base_MspInit
     /tmp/cc4UJZFE.s:321    .text.HAL_TIM_Base_MspInit:0000000000000028 $d
     /tmp/cc4UJZFE.s:326    .text.HAL_TIM_Base_MspDeInit:0000000000000000 $t
     /tmp/cc4UJZFE.s:333    .text.HAL_TIM_Base_MspDeInit:0000000000000000 HAL_TIM_Base_MspDeInit
     /tmp/cc4UJZFE.s:362    .text.HAL_TIM_Base_MspDeInit:0000000000000018 $d
     /tmp/cc4UJZFE.s:368    .text.HAL_UART_MspInit:0000000000000000 $t
     /tmp/cc4UJZFE.s:375    .text.HAL_UART_MspInit:0000000000000000 HAL_UART_MspInit
     /tmp/cc4UJZFE.s:490    .text.HAL_UART_MspInit:000000000000006c $d
     /tmp/cc4UJZFE.s:496    .text.HAL_UART_MspDeInit:0000000000000000 $t
     /tmp/cc4UJZFE.s:503    .text.HAL_UART_MspDeInit:0000000000000000 HAL_UART_MspDeInit
     /tmp/cc4UJZFE.s:546    .text.HAL_UART_MspDeInit:0000000000000020 $d

UNDEFINED SYMBOLS
HAL_GPIO_Init
HAL_GPIO_DeInit
