:020000040800F2
:10000000005000209D2000082D0500082F05000845
:100010003105000833050008350500080000000020
:10002000000000000000000000000000370500088C
:1000300039050008000000003B0500083D050008E8
:10004000E5200008E5200008E5200008E52000087C
:10005000E5200008E5200008E5200008E52000086C
:10006000E5200008E5200008E5200008E52000085C
:10007000E5200008E5200008E5200008E52000084C
:10008000E5200008E5200008E5200008E52000083C
:10009000E5200008E5200008E5200008E52000082C
:1000A000E5200008E5200008E5200008E52000081C
:1000B000E5200008E5200008E5200008E52000080C
:1000C000E5200008E5200008E5200008E5200008FC
:1000D000E5200008E5200008E5200008E5200008EC
:1000E000E5200008E5200008E520000800000000E9
:1000F0000000000000000000000000000000000000
:0C01000000000000000000005FF808F1A3
:10010C00034613F8012B002AFBD1181A013870474B
:10011C0010B5054C237833B9044B13B10448AFF335
:10012C0000800123237010BD780000200000000027
:10013C00D029000808B5034B1BB103490348AFF3A2
:10014C00008008BD000000007C000020D0290008C1
:10015C0084B00F4B9A6942F020029A619A6902F0BE
:10016C0020020192019A9A6942F004029A619A69FA
:10017C0002F004020292029A9A6942F008029A6111
:10018C009B6903F008030393039B04B0704700BF03
:10019C000010024008B50948094B0360094B436045
:1001AC0000238360C3604FF480420261436183612A
:1001BC00C361036200F0BEFB08BD00BFE00000207D
:1001CC0000540040801A060030B587B00024029419
:1001DC00039404940594009401940F4D0F4B2B60E1
:1001EC0047236B60AC604FF6FE73EB602C616C6167
:1001FC00AC61284601F0A4FB4FF48053029302A992
:10020C00284601F0D5FB009401946946284601F07C
:10021C003DFC07B030BD00BF34010020002C014074
:10022C0008B50848084B03604FF41653436000238D
:10023C008360C36003610C2242618361C36101F07E
:10024C00DBFC08BD7C0100200044004000B585B0FB
:10025C0000230093019302930393009101230193D4
:10026C0002230393694601F057F905B05DF804FBCE
:10027C0000B585B000230093019302930393009182
:10028C00694601F049F905B05DF804FB034B1A68A7
:10029C0000235362536A8342FCD37047340100201D
:1002AC0010B5114C02212046FFF7D0FF002202218D
:1002BC00204601F04AFA4FF4F070FFF7E7FF0221F5
:1002CC002046FFF7D5FF5020FFF7E0FF0221204624
:1002DC0001F034FA30B901244FF4C870FFF7D6FF9F
:1002EC00204610BDFF24F7E70008014070B5064614
:1002FC0002211A48FFF7AAFF002411E0174D022132
:10030C002846FFF7A3FF00220221284601F01DFA20
:10031C003C20FFF7BBFF02212846FFF7A9FF013461
:10032C00072C19DC46FA04F313F0010FE6D00B4D41
:10033C0002212846FFF78AFF00220221284601F0FD
:10034C0004FA0120FFF7A2FF02212846FFF790FFD5
:10035C003C20FFF79BFFE2E770BD00BF00080140A7
:10036C0070B502211448FFF783FF00252E4603E0E9
:10037C003C20FFF78BFF0135072D1BDC0E4C0221B7
:10038C002046FFF763FF00220221204601F0DDF931
:10039C000220FFF77BFF02212046FFF769FF0221B5
:1003AC00204601F0CBF90028E2D00123AB401E43DC
:1003BC00F6B2DDE7304670BD0008014030B591B0B3
:1003CC002822002106A801F0ADFE0024019402941D
:1003DC00039404940594012206924FF480330793FE
:1003EC000A9202250D950E934FF4E0130F9306A875
:1003FC0000F078FD0F230193029503944FF4806372
:10040C0004930594294601A800F0AAFF11B030BD51
:10041C0008B500F019FDFFF7D1FFFFF799FEFFF7C4
:10042C00B9FEFFF7D1FEFFF7FBFE304801F020FAD2
:10043C00FFF736FF2E4C2070012000F029FDCC2058
:10044C00FFF754FF4420FFF751FF4FF4487000F0C2
:10045C001FFDFFF725FF2070012000F019FDCC20B7
:10046C00FFF744FFBE20FFF741FFFFF779FF214C58
:10047C002070FFF775FF204B1870237843EA00209B
:10048C001E4B188000091E4D286040F6B83000F055
:10049C00FFFC1C4C2A681C49204601F04BFE2A68C4
:1004AC001A491B4801F046FE2046FFF729FE4FF47F
:1004BC007A7382B22146174801F0CDFB01F032FD70
:1004CC000A21084601F06CFC134D01222946134801
:1004DC0001F0BAFC1E210A2001F062FC012229461F
:1004EC00204601F0B1FC01F0F9FCA1E73401002039
:1004FC009400002098000020990000209600002015
:10050C009C000020A0000020E8290008FC2900081D
:10051C00C00000207C01002008000020042A0008F4
:10052C007047FEE7FEE7FEE7FEE77047704770474F
:10053C0008B500F09BFC08BD82B00E4B9A6942F0E6
:10054C0001029A619A6902F001020092009ADA693A
:10055C0042F08052DA61DB6903F080530193019B16
:10056C00054A536823F0E06343F00073536002B014
:10057C00704700BF001002400000014010B586B06B
:10058C00002302930393049305930268114B9A4240
:10059C0001D006B010BD104CA36943F00803A36151
:1005AC00A36903F008030093009BC023029312235A
:1005BC0003930323059302A9084800F0ADFFE369F8
:1005CC0043F40013E361E36903F400130193019B0B
:1005DC00DFE700BF0054004000100240000C014057
:1005EC000268094B9A4200D0704782B003F564430D
:1005FC009A6942F400629A619B6903F40063019367
:10060C00019B02B0704700BF002C014010B586B0B2
:10061C00002302930393049305930268164B9A42AA
:10062C0001D006B010BD03F5E633DA6942F40032AE
:10063C00DA61DA6902F400320092009A9A6942F0A7
:10064C0004029A619B6903F004030193019B042348
:10065C0002930223039303230593084C02A920461B
:10066C0000F05AFF0823029300230393049302A97A
:10067C00204600F051FFD4E7004400400008014040
:10068C0003685A6912F4806F01D1002070476FF42F
:10069C0080625A6100230363202280F83D2080F899
:1006AC003E30026C42F00402026480F83C300120BF
:1006BC0070472DE9F04107460D4690461E4624E052
:1006CC0000F0E0FB069BC01AB04200D8EEB9002344
:1006DC003B63202287F83D2087F83E303A6C42F08D
:1006EC0020023A6487F83C3001201EE03B689C698C
:1006FC0025EA040C1FFA8CFCBCFA8CFC4FEA5C1C3F
:10070C00E04511D1B6F1FF3FDAD1C5F30743012B18
:10071C00ECD13B685B6925EA030C1FFA8CFCBCFA34
:10072C008CFC4FEA5C1CEBE70020BDE8F0812DE966
:10073C00F04105460E46174698463DE01A6842F4CD
:10074C0000721A602B686FF480625A6100232B636D
:10075C00202285F83D2085F83E302A6C42F00402B8
:10076C002A6485F83C30012034E000F08BFBA0EBD0
:10077C000800B84200D8FFB900232B63202285F86B
:10078C003D2085F83E302A6C42F020022A6485F820
:10079C003C3001201EE02B689C6926EA0404A4B2BC
:1007AC00003C18BF0124A4B12B685A6912F4806F65
:1007BC00C4D1B7F1FF3FD8D1C6F30743012BEAD11F
:1007CC002B685C6926EA0404A4B2003C18BF01241F
:1007DC00E9E70020BDE8F081F0B583B004460D4692
:1007EC0016461F46C36A082B0DD0012B0BD013F5F0
:1007FC00803F08D0036B122B0AD10268136843F4B4
:10080C008073136004E02268136843F480731360F0
:10081C000097334600224FF001112046FFF749FFA5
:10082C0080B92369B3F5804F16D1236805F0FE0516
:10083C001D613B46324613492046FFF778FFF8B955
:10084C0003B0F0BD23681B6813F4807F02D04FF413
:10085C00007323640320F3E7EB11226803F0060313
:10086C0043F0F00313613B46324607492046FFF73D
:10087C005EFF18B92368EDB21D61DAE70120DFE7EE
:10088C000120DDE7020001000800010070B50446FC
:10089C000D46164623685B6913F0800F1CD1204669
:1008AC00FFF7EEFED0B9B5F1FF3FF3D000F0EAFA56
:1008BC00801BA84201D8002DECD1002323632022F9
:1008CC0084F83D2084F83E30226C42F020022264F1
:1008DC0084F83C30012000E0002070BD0120FCE7D2
:1008EC0070B504460D46164623685B6913F0040F79
:1008FC001CD12046FFF7C4FED0B9B5F1FF3FF3D0B1
:10090C0000F0C0FA801BA84201D8002DECD10023C6
:10091C002363202284F83D2084F83E30226C42F080
:10092C002002226484F83C30012000E0002070BDDD
:10093C000120FCE7002800F0CC8070B5044690F84C
:10094C003D30002B77D0242384F83D302268136887
:10095C0023F0010313602268136843F4004313600F
:10096C002268136823F40043136000F0B5FD62683D
:10097C005A4B9A4264D85A4B98428CBF002301239D
:10098C00002B40F0A8805749A1FB00318B0C256847
:10099C006A6822F03F0242EA91426A6021680A6A60
:1009AC0022F03F0266684D4DAE424FD801331343DF
:1009BC000B622168CA6922F44F4222F0FF0266687A
:1009CC00464B9E424CD8431E7600B3FBF6F30133E4
:1009DC0040F6FC70034278D0C3F30B031343CB6196
:1009EC0021680B6823F0C003E269206A02431343B9
:1009FC000B6021688B6823F4034323F0FF03226907
:100A0C00E068024313438B602168CB6823F0FF033B
:100A1C006269A06902431343CB602268136843F0F8
:100A2C000103136000202064202384F83D302063F0
:100A3C0084F83E0070BD80F83C30FFF79FFD82E7E4
:100A4C00294B98428CBF0023012399E74FF49675EC
:100A5C0005FB03F3254DA5FB03539B090133A6E7C7
:100A6C00A368BBB9451E06EB460CB5FBFCF501357E
:100A7C00C5F30B05B5FA85F56D0945BBC3B901384E
:100A8C0006EB4603B0FBF3F30133C3F30B0343F460
:100A9C000043A3E7451E06EB860C0CEB8C0CB5FB58
:100AAC00FCF50135C5F30B05B5FA85F56D09E4E7E1
:100ABC00013806EB860303EB8303B0FBF3F301333E
:100ACC00C3F30B0343F4404388E7042386E7012375
:100ADC0084E7012070470120ACE700BFA08601002D
:100AEC007F841E0083DE1B43FF083D00D34D621044
:100AFC002DE9F04385B004460F46914698460C9E6E
:100B0C0000F0C0F9054694F83D00C0B2202804D08E
:100B1C000227384605B0BDE8F08300951923012261
:100B2C004F492046FFF7C5FD002840F0928094F80D
:100B3C003C30012B00F08F80012384F83C3023687B
:100B4C001A6812F0010F03D11A6842F001021A6000
:100B5C002268136823F400631360212384F83D306A
:100B6C00102384F83E3000232364C4F82490A4F8A6
:100B7C002A80638D23853B4BE3622B4632463946F4
:100B8C002046FFF729FE0746002866D10023039371
:100B9C0023685A6903929B690393039B11E0236CAE
:100BAC00042B01D00127B4E72268136843F40073C7
:100BBC001360F7E72A4631462046FFF791FE0028DE
:100BCC002ED1238D002B36D02A4631462046FFF7F6
:100BDC005DFE0028E3D1626A236812781A61606AAC
:100BEC00431C6362618D89B2013989B26185238DA1
:100BFC00013B9BB223852268516911F0040FD9D0B7
:100C0C00002BD7D043781361636A01336362638D21
:100C1C009BB2013B9BB26385238D013B2385C9E7C6
:100C2C00236C042B01D0012773E72268136843F46B
:100C3C0000731360F7E72268136843F400731360C2
:100C4C00202384F83D30002384F83E3084F83C3077
:100C5C005FE702275DE702275BE7012759E700BF43
:100C6C00020010000000FFFF2DE9F04385B00446A0
:100C7C00884691461D4600F005F994F83D30DBB2EC
:100C8C00202B03D0022005B0BDE8F083064600906F
:100C9C001923012258492046FFF70BFD002840F08C
:100CAC00A28094F83C30012B00F09F80012384F843
:100CBC003C3023681A6812F0010F03D11A6842F015
:100CCC0001021A602268136823F400631360242362
:100CDC0084F83D3000232364A3F58033E3620127BD
:100CEC0040E023681B6813F4807F02D04FF400733C
:100CFC0023640320C7E7A02384F83D30226853699E
:100D0C00C3F340035269C2F3802294F83DC05FFAEA
:100D1C008CFCBCF1A00F09D043B93AB900F0B2F881
:100D2C00801BA842E7D8002DE8D1E4E7202384F803
:100D3C003D3023685A6912F0020F31D11A6842F41F
:100D4C0000721A6023686FF480625A61009619234E
:100D5C00012229492046FFF7ACFC002849D1013774
:100D6C004F4538D22268136843F4807313600096A1
:100D7C002B4600224FF001112046FFF79AFC002869
:100D8C00AFD1236808F0FE021A6100F07BF806462A
:100D9C0022685369C3F340035269C2F38022B4E75B
:100DAC001A6842F400721A600023039323685A698C
:100DBC0003929B690393039B0096192301220E490E
:100DCC002046FFF776FC90B9202384F83D300023B1
:100DDC0084F83C3057E7202384F83D30002384F816
:100DEC003C3001204FE702204DE702204BE7012069
:100DFC0049E7012047E700BF0200100010B5044688
:100E0C000E4B18784FF47A73B3FBF0F30C4A10685E
:100E1C00B0FBF3F000F0EAFC68B90F2C01D901200B
:100E2C000AE0002221464FF0FF3000F0A7FC054BF2
:100E3C001C60002000E0012010BD00BF000000205D
:100E4C00100000200400002008B5074A136843F086
:100E5C0010031360032000F07FFC0020FFF7CEFF8F
:100E6C00FFF76AFB002008BD00200240034A11680E
:100E7C00034B1B780B441360704700BFBC01002070
:100E8C0000000020014B1868704700BFBC01002017
:100E9C0038B50446FFF7F6FF0546B4F1FF3F02D024
:100EAC00044B1B781C44FFF7EDFF401BA042FAD308
:100EBC0038BD00BF0000002082B0084B1B68084AF8
:100ECC00A2FB03235B0A00FB03F3019300BF019B0E
:100EDC005A1E0192002BF9D102B07047100000206D
:100EEC00D34D6210002800F0F18170B582B0044639
:100EFC00036813F0010F2CD0994B5B6803F00C03C3
:100F0C00042B1DD0964B5B6803F00C03082B12D0FE
:100F1C006368B3F5803F41D0002B55D103F180437A
:100F2C0003F504331A6822F480321A601A6822F42A
:100F3C0080221A6037E08A4B5B6813F4803FE7D05D
:100F4C00874B1B6813F4003F03D06368002B00F041
:100F5C00BF81236813F0020F75D0814B5B6813F0CF
:100F6C000C0F5FD07E4B5B6803F00C03082B54D046
:100F7C002369002B00F08A807A4B01221A60FFF75C
:100F8C0081FF0546764B1B6813F0020F75D1FFF7F6
:100F9C0079FF401B0228F5D903209EE1704A1368A3
:100FAC0043F480331360636843B3FFF76BFF05466C
:100FBC006B4B1B6813F4003FCBD1FFF763FF401B57
:100FCC006428F5D9032088E1B3F5A02F09D0644B30
:100FDC001A6822F480321A601A6822F480221A608D
:100FEC00E1E703F18043A3F53C331A6842F4802215
:100FFC001A601A6842F480321A60D4E7FFF742FF95
:10100C000546574B1B6813F4003FA2D0FFF73AFF7D
:10101C00401B6428F5D903205FE1514B5B6813F446
:10102C00803FA5D14E4B1B6813F0020F03D02369F0
:10103C00012B40F04F814A4A136823F0F803616991
:10104C0043EAC1031360236813F0080F33D0A3697C
:10105C00002B5CD0434B0122C3F88024FFF712FF16
:10106C0005463F4B5B6A13F0020F21D1FFF70AFFD5
:10107C00401B0228F5D903202FE1394A136823F0CD
:10108C00F803616943EAC1031360DCE7354B0022C6
:10109C001A60FFF7F7FE0546314B1B6813F0020F81
:1010AC00D1D0FFF7EFFE401B0228F5D9032014E145
:1010BC000120FFF701FF236813F0040F00F0968066
:1010CC00274BDB6913F0805F34D1254BDA6942F092
:1010DC008052DA61DB6903F080530193019B012597
:1010EC00214B1B6813F4807F26D0E368012B3DD085
:1010FC00002B53D103F1804303F504331A6A22F019
:10110C0001021A621A6A22F004021A6233E0154BC9
:10111C000022C3F88024FFF7B5FE0546104B5B6A2E
:10112C0013F0020FC7D0FFF7ADFE401B0228F5D914
:10113C000320D2E00025D3E70B4A136843F48073F5
:10114C001360FFF79FFE0646074B1B6813F4807F66
:10115C00CBD1FFF797FE801B6428F5D90320BCE0A8
:10116C000010024000004242007000405F4A136AC7
:10117C0043F001031362E36833B3FFF783FE0646C3
:10118C005A4B1B6A13F0020F2FD1FFF77BFE801B0B
:10119C0041F288339842F3D903209EE0052B09D005
:1011AC00524B1A6A22F001021A621A6A22F00402E5
:1011BC001A62E0E74D4B1A6A42F004021A621A6A8C
:1011CC0042F001021A62D6E7FFF75CFE0646474B77
:1011DC001B6A13F0020F08D0FFF754FE801B41F27C
:1011EC0088339842F3D9032077E0E5B9E369002B03
:1011FC0072D03E4A526802F00C02082A56D0022BDA
:10120C0017D03B4B00221A66FFF73CFE0446374BC7
:10121C001B6813F0007F47D0FFF734FE001B022839
:10122C00F5D9032059E0314AD36923F08053D361B7
:10123C00DCE72F4B00221A66FFF724FE05462B4BEA
:10124C001B6813F0007F06D0FFF71CFE401B022822
:10125C00F5D9032041E0236AB3F5803F1AD0234926
:10126C004B6823F47413226A606A024313434B6085
:10127C001F4B01221A66FFF705FE04461B4B1B6829
:10128C0013F0007F0ED1FFF7FDFD001B0228F5D9EE
:10129C00032022E0154A536823F40033A1680B4362
:1012AC005360DCE7002018E0002016E0012B16D07C
:1012BC000E4B5B6803F48031226A914211D103F426
:1012CC007013626A93420ED1002006E00120704731
:1012DC00012002E0012000E0002002B070BD0120DE
:1012EC00FBE70120F9E70120F7E700BF00100240FF
:1012FC000000424286B0164B0FCB0DF1180C0CE9D6
:10130C000F0040F20123ADF80430124B5B6803F080
:10131C000C02082A02D0104806B07047C3F383426F
:10132C00624412F8100C13F4803F0CD0094B5B682C
:10133C00C3F34043634413F8143C074A02FB00F028
:10134C00B0FBF3F0E8E7054B03FB00F0E4E700BF6C
:10135C00102A00080010024000127A0000093D001B
:10136C00002800F0A08070B50D460446524B1B6857
:10137C0003F007038B420BD24F4A136823F0070389
:10138C000B431360136803F007038B4240F08D800E
:10139C00236813F0020F17D013F0040F04D0474A40
:1013AC00536843F4E0635360236813F0080F04D0D0
:1013BC00424A536843F460535360404A536823F0E5
:1013CC00F003A1680B435360236813F0010F31D075
:1013DC006368012B20D0022B25D0384A126812F0FA
:1013EC00020F64D035494A6822F0030213434B6064
:1013FC00FFF748FD0646314B5B6803F00C0362684F
:10140C00B3EB820F16D0FFF73DFD801B41F2883302
:10141C009842F0D9032045E0284A126812F4003FA4
:10142C00E0D101203EE0254A126812F0007FD9D1AC
:10143C00012037E0204B1B6803F00703AB420AD9AD
:10144C001D4A136823F007032B431360136803F042
:10145C000703AB422DD1236813F0040F06D0174AB3
:10146C00536823F4E063E1680B435360236813F083
:10147C00080F07D0114A536823F46053216943EADB
:10148C00C1035360FFF736FF0C4B5B68C3F30313C8
:10149C000B4AD35CD8400B4B18600B4B1868FFF70A
:1014AC00ADFC002070BD012070470120FAE701203F
:1014BC00F8E70120F6E700BF0020024000100240D0
:1014CC00903100081000002004000020014B186827
:1014DC00704700BF1000002008B5FFF7F7FF044B62
:1014EC005B68C3F30223034AD35CD84008BD00BF3A
:1014FC0000100240A031000808B5FFF7E7FF044BCD
:10150C005B68C3F3C223034AD35CD84008BD00BF59
:10151C0000100240A031000870B582B00024A4462F
:10152C00A6E0804DAA4210D007D97F4DAA420CD01C
:10153C0005F58035AA4208D013E0A5F58015AA421E
:10154C0003D005F57025AA4207D18A68002A58D025
:10155C00012A51D04361082403E0A5F58015AA4265
:10156C00F3D0BEF1FF0F4ED80646BEF1FF0F4CD89C
:10157C004FEA8C0233680F25954023EA050304FAE1
:10158C0002F2134333604B6813F0805F6ED0674BED
:10159C009A6942F001029A619B6903F0010301937D
:1015AC00019B4FEA9C02951C614B53F825600CF093
:1015BC0003039D000F23AB4026EA03065D4B9842C4
:1015CC0029D003F58063984200F08E8003F5806388
:1015DC00984200F08B8003F58063984219D0042365
:1015EC001AE0CC68BDE7CC680434BAE7CC680834A0
:1015FC00B7E7CC680C34B4E703610824B1E70024E6
:10160C00AFE70424ADE7061DAFE7ACF1080292008A
:10161C00B0E7032300E00023AB4033430232444DD8
:10162C0045F822304B6813F4803F61D0424A13686E
:10163C0043EA0E0313604B6813F4003F5ED03E4A3E
:10164C00536843EA0E0353604B6813F4801F5BD05E
:10165C00394A936843EA0E0393604B6813F4001FF6
:10166C0058D0354AD36843EA0E03D3600CF1010C11
:10167C000A6832FA0CF353D0012303FA0CF302EA92
:10168C00030E33EA0202F1D14A68122A3FF649AF3F
:10169C00122A3FF666AF01A555F822F0571500083F
:1016AC00EF150008F91500080B1600086F15000857
:1016BC006F1500086F1500086F1500086F150008EE
:1016CC006F1500086F1500086F1500086F150008DE
:1016DC006F1500086F1500086F1500086F150008CE
:1016EC00F3150008FF150008012395E7022393E783
:1016FC00114A136823EA0E0313609CE70E4A5368E1
:10170C0023EA0E0353609FE70B4A936823EA0E0308
:10171C009360A2E7084AD36823EA0E03D360A5E7D7
:10172C0002B070BD00002210000031100010024009
:10173C000000014000080140000401408368194288
:10174C0001D001207047002070470AB10161704739
:10175C000904016170470000074AD36823F4E06371
:10176C001B041B0C000200F4E060034343F0BF6356
:10177C0043F40033D360704700ED00E000B5194B23
:10178C00DB68C3F30223C3F1070CBCF1040F28BFC1
:10179C004FF0040C03F1040EBEF1060F18D9033BF5
:1017AC004FF0FF3E0EFA0CFC21EA0C0199400EFAA8
:1017BC0003F322EA0303194300280BDB0901C9B226
:1017CC0000F1604000F5614080F800135DF804FB07
:1017DC000023E5E700F00F000901C9B2024B1954D0
:1017EC00F4E700BF00ED00E014ED00E00138B0F1CB
:1017FC00807F0BD24FF0E0235861054AF02182F82C
:10180C0023100020986107221A617047012070474D
:10181C0000ED00E010B4036A046A24F001040462D1
:10182C00846924F0F00C4CEA021223F00A030B43F7
:10183C008261036210BC704710B4046A24F0100477
:10184C0004628469036A24F4704C4CEA023223F07B
:10185C00A00343EA01138261036210BC70478368E2
:10186C0023F070030B4343F00703836070470000C1
:10187C0090F83D30DBB2012B22D1022380F83D30B1
:10188C000368114A934210D0B3F1804F0DD0A2F5EA
:10189C009432934209D002F58062934205D01A68C3
:1018AC0042F001021A60002070479A6802F00702A9
:1018BC00062A07D01A6842F001021A60002070470D
:1018CC000120704700207047002C014003681B4A20
:1018DC0090420AD0B0F1804F07D0A2F594329042DA
:1018EC0003D002F58062904203D123F070034A6862
:1018FC001343124A90420AD0B0F1804F07D0A2F5A0
:10190C009432904203D002F58062904203D123F4CA
:10191C004073CA68134323F080034A69134303607E
:10192C008B68C3620B688362044B984202D001231C
:10193C00436170470B690363F9E700BF002C01405A
:10194C0040B310B5044690F83D30F3B1022384F84F
:10195C003D30214651F8040BFFF7B8FF012384F802
:10196C00463084F83E3084F83F3084F8403084F8B8
:10197C00413084F8423084F8433084F8443084F8A1
:10198C00453084F83D30002010BD80F83C30FEF727
:10199C0027FEDBE70120704710B4846824F47F4CE9
:1019AC0042EA03220A4342EA0C02826010BC7047EE
:1019BC0090F83C30012B66D010B50446012380F81A
:1019CC003C30022380F83D300268936823F47F4357
:1019DC0023F0770393600B68602B40D022D8402B08
:1019EC0047D00BD9502B0ED1CA6849680068FFF755
:1019FC0011FF50212068FFF732FF04E0202B0CD0A0
:101A0C0008D9302B09D0012384F83D30002084F80C
:101A1C003C0010BD0BB1102BF5D119462068FFF717
:101A2C001EFFF0E7702B0ED0B3F5005FEBD1CB6847
:101A3C004A6889680068FFF7AFFF2268936843F42F
:101A4C0080439360DFE7CB684A6889680068FFF7DA
:101A5C00A3FF2268936843F077039360D3E7CA68C7
:101A6C0049680068FFF7E8FE60212068FFF7F7FE81
:101A7C00C9E7CA6849680068FFF7CCFE40212068B6
:101A8C00FFF7EDFEBFE702207047000090F83C30F6
:101A9C00012B2CD010B4012380F83C30022380F8A9
:101AAC003D3003685A689C6822F0700C0A6842EA60
:101ABC000C025A6003680F4A93420AD0B3F1804F6C
:101ACC0007D0A2F59432934203D002F58062934280
:101ADC0004D124F080044A6814439C60012380F8EC
:101AEC003D30002380F83C30184610BC7047022073
:101AFC00704700BF002C014010B504460268136902
:101B0C0023F44053C1680B43136183680269134388
:101B1C0042691A430168CB6823F4B05323F00C03D9
:101B2C001343CB600268536923F4407381690B4300
:101B3C0053610268134B9A4220D0FFF7CDFC02464A
:101B4C0002EB820202EB820263689B00B2FBF3F2AF
:101B5C000D48A0FB02314909642303FB11231B012F
:101B6C003233A0FB03235B0903F0F00202EB0112FA
:101B7C0003F00F03216813448B6010BDFFF7BCFC0E
:101B8C000246DDE7003801401F85EB512DE9F84393
:101B9C0005460F4616469946DDF820802C682468C9
:101BAC0037EA04030CBF4FF0010C4FF0000CB445A6
:101BBC001FD1B8F1FF3FF1D0B8F1000F05D0FFF7FE
:101BCC0061F9A0EB09004045E8D92A68D36823F4F1
:101BDC00D073D3602A68536923F001035361202327
:101BEC0085F8393085F83A30002385F838300320F1
:101BFC0000E00020BDE8F88358B310B5044690F817
:101C0C0039300BB3242384F839302268D36823F499
:101C1C000053D3602046FFF76FFF2268136923F44B
:101C2C00904313612268536923F02A03536122689D
:101C3C00D36843F40053D3600020E063202384F87E
:101C4C00393084F83A3010BD80F83830FEF7DEFCBD
:101C5C00D8E7012070472DE9F04182B01E4690F87C
:101C6C003930DBB2202B54D104460D469046002966
:101C7C0053D0002A53D090F83830012B51D0012387
:101C8C0080F838300023C363212380F83930FFF704
:101C9C00F9F80746A4F82480A4F82680A368B3F5C5
:101CAC00805F05D04FF00008002384F8383012E034
:101CBC00236913B14FF00008F6E7A8460025F3E7B7
:101CCC0038F8023B2268C3F308035360E28C92B2EB
:101CDC00013A92B2E284E38C9BB273B100963B461C
:101CEC00002280212046FFF751FFE0B9002DE7D0FC
:101CFC0015F8012B23685A60E8E700963B46002252
:101D0C0040212046FFF742FF78B9202384F8393070
:101D1C0000E0022002B0BDE8F0810120FAE70120CA
:101D2C00F8E70220F6E70320F4E70320F2E70000CF
:101D3C0008B530B900214FF48062034800F0F2F985
:101D4C0008BDFF21F7E700BFC80100207F2815D888
:101D5C003F2913D8104B1B7913B1B2FA82F25209F6
:101D6C00012A0CD0CB0800EBC31001F007010123B2
:101D7C008B400A4A115C21EA030111547047CB08CD
:101D8C0000EBC31001F0070101238B40034A115CE7
:101D9C0019431154704700BFC0010020C801002036
:101DAC00014B188059807047C00100202DE9F84381
:101DBC009046244B1B880A7813447F2B3EDC8146CB
:101DCC000D46204B5B884A7813443F2B38DC0026A9
:101DDC0020E01C4B1888598831442044B8FA88F20A
:101DEC00520989B280B2FFF7B1FF01342B78A342BC
:101DFC000FD907FA04F313F4004FEAD0114B1888EB
:101E0C00598831442044424689B280B2FFF79EFF84
:101E1C00EBE701366A78B24208D96968A9F1200368
:101E2C0002FB036331F813700024DFE72B78054ABB
:101E3C0011880B4413804846BDE8F8830020FBE76B
:101E4C000020F9E7C001002070B504460E46154687
:101E5C0000E00134207838B12A463146FFF7A6FF5E
:101E6C00034620788342F4D070BD000000B5C3B0A7
:101E7C008DF808104FF0000C09E00CF1010E12F86F
:101E8C000C100DF1080C0CF80E105FFA8EFC1FFAFA
:101E9C008CFE9E45F1D301330A2200929BB202AA1A
:101EAC0001460348FEF724FE43B05DF804FB00BF77
:101EBC00E000002000B585B08DF80C108DF80D20D9
:101ECC000A230093022303AA01460348FEF710FEDF
:101EDC0005B05DF804FB00BFE000002010B5002445
:101EEC001AE0A4F15002D2B200217820FFF7E2FFF1
:101EFC00002211467820FFF7DDFF10220021782008
:101F0C00FFF7D8FF8023064A02EBC4124021782049
:101F1C00FFF7ACFF0134E4B2072CE2D910BD00BFCF
:101F2C00C801002008B544F62063012278215548E9
:101F3C00FEF79AFE002840F0A38040F6C41300E0A0
:101F4C00013B002BFCD1AE2200217820FFF7B2FF21
:101F5C00202200217820FFF7ADFF102200217820ED
:101F6C00FFF7A8FFB02200217820FFF7A3FFC822BB
:101F7C0000217820FFF79EFF002211467820FFF702
:101F8C0099FF102200217820FFF794FF40220021B6
:101F9C007820FFF78FFF812200217820FFF78AFF3E
:101FAC00FF2200217820FFF785FFA1220021782055
:101FBC00FFF780FFA62200217820FFF77BFFA822E5
:101FCC0000217820FFF776FF3F2200217820FFF7D1
:101FDC0071FFA42200217820FFF76CFFD32200218F
:101FEC007820FFF767FF002211467820FFF762FF89
:101FFC00D52200217820FFF75DFFF0220021782008
:10200C00FFF758FFD92200217820FFF753FF222237
:10201C0000217820FFF74EFFDA2200217820FFF70D
:10202C0049FF122200217820FFF744FFDB22002118
:10203C007820FFF73FFF202200217820FFF73AFF9E
:10204C008D2200217820FFF735FF14220021782003
:10205C00FFF730FFAF2200217820FFF72BFF2E2255
:10206C0000217820FFF726FF0020FFF761FEFFF725
:10207C0035FF054B00221A805A800120587108BD8B
:10208C000020FCE7E0000020C001002070470000A9
:10209C00002103E00B4B5B58435004310A480B4BB7
:1020AC0042189A42F6D30A4A02E0002342F8043B53
:1020BC00084B9A42F9D3FFF7E9FF00F00FF8FEF74F
:1020CC00A7F97047E43100080000002078000020D8
:1020DC0078000020E4050020FEE7000070B5002623
:1020EC000C4D0D4C641BA410A64209D100F06AFCE7
:1020FC0000260A4D0A4C641BA410A64205D170BDE3
:10210C0055F8043B98470136EEE755F8043B9847E1
:10211C000136F2E7DC310008DC310008DC31000864
:10212C00E031000803460244934200D1704703F8A3
:10213C00011BF9E70EB46FF0004100B59CB01DAB6C
:10214C0002900690079104910848094953F8042B12
:10215C000591006802A9019300F06AF80022029B25
:10216C001A701CB05DF804EB03B07047140000202B
:10217C000802FFFF704770472DE9F0478E688246D2
:10218C009E420C4690461F4638D88A8912F4906FAE
:10219C0032D0256809690133A5EB010965694B4407
:1021AC0005EB450505EBD5756D109D4238BF1D46F9
:1021BC00530531D5294600F053FB064650B90C2384
:1021CC004FF0FF30CAF80030A38943F04003A381DD
:1021DC00BDE8F0874A46216900F0CEFAA38923F4C2
:1021EC00906343F08003A38126614E4426603E46F3
:1021FC006561A5EB0905A560BE4200D93E46324695
:10220C004146206800F0C6FAA36822689B1B324442
:10221C000020A3602260DBE72A4600F07BFB064629
:10222C000028E1D15046216900F0CEFAC7E7000042
:10223C002DE9F04F98468B8907461B060D46144630
:10224C009DB00ED50B6963B9402100F009FB2860E5
:10225C00286120B90C233B604FF0FF30D1E04023C4
:10226C006B610023099320238DF8293030234FF024
:10227C000109CDF80C80DFF8A4818DF82A302346B3
:10228C009A4613F8012B0AB1252AF9D1BAEB040BA3
:10229C000BD05B46224629463846FFF76DFF0130CE
:1022AC0000F0AA80099A5A4409929AF80030002B3F
:1022BC0000F0A28000234FF0FF32CDE905230AF194
:1022CC00010A049307938DF853301A935446052250
:1022DC0014F8011B514800F041FA049AD8B9D00601
:1022EC0044BF20238DF85330110744BF2B238DF8A6
:1022FC0053309AF800302A2B15D0544600204FF05A
:10230C000A0C079A214611F8013B303B092B4ED998
:10231C00B0B1079214E0A0EB080309FA03F31343DE
:10232C00A2460493D2E7039B191D1B680391002B53
:10233C00BBBF5B4242F0020207930793B8BF049203
:10234C0023782E2B0CD163782A2B35D1039B0234A6
:10235C001A1D1B680392002BB8BF4FF0FF33059377
:10236C00DFF8C8A003225046217800F0F7F940B1FD
:10237C004023A0EB0A0003FA00F0049B0134034352
:10238C00049314F8011B062225488DF8281000F040
:10239C00E5F9002838D0234B1BBB039B073323F0F4
:1023AC00070308330393099B3344099367E70C46EF
:1023BC0001200CFB0232A5E700234FF00A0C194652
:1023CC0001340593204610F8012B303A092A03D921
:1023DC00002BC5D00591C3E7044601230CFB01215A
:1023EC00F0E703AB00932A4638460F4B04A9AFF332
:1023FC000080421C0646D6D1AB895B063FF52CAF5C
:10240C0009981DB0BDE8F08F03AB00932A463846FF
:10241C00054B04A900F07CF8EBE700BFA8310008DD
:10242C00B23100080000000085210008AE31000820
:10243C002DE9F047164699468A680B690746934280
:10244C00B8BF1346336091F843200C46DDF820806A
:10245C000AB1013333602368990642BF33680233F3
:10246C003360256815F0060506D104F1190AE368F6
:10247C0032689B1AAB4228DC94F84320131E226866
:10248C0018BF012392062DD44946384604F1430265
:10249C00C047013020D02368E56803F00603042B05
:1024AC0018BF002532684FF00006A36808BFAD1AAC
:1024BC00226908BF25EAE5759342C4BF9B1AED1843
:1024CC001A34B5421AD1002008E00123524649467D
:1024DC003846C047013003D14FF0FF30BDE8F087DC
:1024EC000135C4E73020E11881F843005A1C94F8F8
:1024FC0045102244023382F84310C5E701232246DB
:10250C0049463846C0470130E6D00136D9E70000CD
:10251C002DE9FF470C46277E9146782F80469A4638
:10252C000C9904F1430207D8622F0AD8002F00F04F
:10253C00D980582F00F0A48004F1420684F8427030
:10254C003AE0A7F16303152BF6D801A050F823F05D
:10255C00B5250008C92500084525000845250008B3
:10256C004525000845250008C92500084525000813
:10257C00452500084525000845250008D7260008F4
:10258C00F9250008B926000845250008452500084E
:10259C00F926000845250008F925000845250008FE
:1025AC0045250008C12600080B6804F142061A1DD7
:1025BC001B680A6084F842300123A4E0256808688F
:1025CC002E0600F104030AD505680B60002D03DA12
:1025DC002D236D4284F843300A235E4819E015F030
:1025EC00400F05680B6018BF2DB2EFE70B6825682C
:1025FC00181D0860280601D51D6802E06906FBD588
:10260C001D886F2F0CBF08230A235248002184F821
:10261C0043106668002EA8BF2168A660A4BF21F0F5
:10262C00040121600DB9002E4DD01646B5FBF3F117
:10263C0003FB1157C75D06F8017D2F46BB420D46C3
:10264C00F4D9082B0BD12368DF0708D523696168FF
:10265C009942DEBF302306F8013C06F1FF36921B8F
:10266C0022614B4621464046CDF800A003AAFFF755
:10267C00DFFE01304CD14FF0FF3004B0BDE8F087E5
:10268C00344884F845700E68236856F8045B1F06BE
:10269C000E6014D5D90744BF43F0200323601DB945
:1026AC00236823F0200323601023AFE7236843F053
:1026BC00200323607823284884F84530E3E75E063E
:1026CC0048BFADB2E6E71646BBE70B6826681D1D92
:1026DC0060690D6035061B6801D5186002E0710653
:1026EC00FBD51880002316462361BAE70B681A1D28
:1026FC000A601E6800213046626800F02FF808B1AD
:10270C00801B606063682361002384F84330A8E772
:10271C003246494640462369D0470130ABD0236846
:10272C009B0713D4E068039B9842B8BF1846A4E7F4
:10273C000123324649464046D04701309BD00135F3
:10274C00E36803995B1AAB42F2DCEBE7002504F17A
:10275C001906F5E7B9310008CA310008034610B56F
:10276C00C9B202449342184601D1002003E0047818
:10277C0001338C42F6D110BD0A44914200F1FF3373
:10278C0000D1704710B511F8014B914203F8014F7D
:10279C00F9D110BD884210B501EB020402D9844274
:1027AC00234607D8431EA14208D011F8012B03F889
:1027BC00012FF8E7014602448A4200D110BD13F8FC
:1027CC00014D02F8014DF7E738B50546002943D015
:1027DC0051F8043C0C1F002BB8BFE41800F0D0F8E3
:1027EC001E4A1368104633B9636014602846BDE86E
:1027FC00384000F0CBB8A3420AD921686218934242
:10280C0001BF1A685B685218226063600460EDE7D0
:10281C001A465B680BB1A342FAD911685018A04252
:10282C000BD120680144501883421160DED1186826
:10283C005B68014411605360D8E702D90C232B600C
:10284C00D4E7206821188B4201BF19685B6809180E
:10285C00216063605460C9E738BD00BFC805002023
:10286C00F8B5CD1C25F0030508350C2D38BF0C250B
:10287C00002D064601DBA94203D90C23336000204E
:10288C00F8BD00F07DF821490A6814469CB9204F28
:10289C003B6823B92146304600F062F8386029467F
:1028AC00304600F05DF8431C23D10C2330463360D6
:1028BC0000F06CF8E3E723685B1B17D40B2B03D9F0
:1028CC0023601C44256004E06368A2420CBF0B60CB
:1028DC005360304600F05AF804F10B00231D20F031
:1028EC000700C21ACCD01B1AA350C9E72246646851
:1028FC00CCE7C41C24F00304A042E3D0211A3046D8
:10290C0000F02EF80130DDD1CFE700BFC805002064
:10291C00CC050020F8B5074614460E4621B91146E1
:10292C00BDE8F840FFF79CBF22B9FFF74DFF2546E5
:10293C002846F8BD00F030F8A0420FD221463846A8
:10294C00FFF78EFF05460028F2D031462246FFF7EE
:10295C0013FF31463846FFF737FFE9E73546E7E71F
:10296C0038B50023054D044608462B6000F01CF8D2
:10297C00431C02D12B6803B1236038BDE005002055
:10298C000148FFF7F7BB00BFD80500200148FFF74F
:10299C00F2BB00BFD805002051F8043C181F002BD7
:1029AC00BCBF0B58C0187047044A05491368002B6C
:1029BC0008BF0B461844106018467047D00500201D
:1029CC00E8050020F8B500BFF8BC08BC9E4670476F
:0C29DC00F8B500BFF8BC08BC9E46704770
:1029E800536963616B6C696B203A2025642043202E
:1029F8000A0D0000256420430000000053494341AC
:102A08004B4C494B00000000020304050607080967
:102A18000A0B0C0D0E0F1010000000000000000043
:102A2800000000000000000000000000000000009E
:102A3800001000100010001000100010000000101E
:102A48000000000000280028002800000000000006
:102A5800000000000000000000240024007C002486
:102A68000048007C0048004800000000003800547E
:102A780000500038001400540054003800100000C2
:102A880000200054005800300028005400140008AA
:102A98000000000000100028002800100034004842
:102AA8000048003400000000001000100010000072
:102AB80000000000000000000000000000080010F6
:102AC8000020002000200020002000200010000826
:102AD800002000100008000800080008000800088E
:102AE800001000200010003800100028000000002E
:102AF80000000000000000000000000000100010AE
:102B0800007C001000100000000000000000000021
:102B1800000000000000000000000010001000107D
:102B28000000000000000000000000380000000065
:102B3800000000000000000000000000000000008D
:102B4800000000100000000000080008001000103D
:102B58000010001000200020000000000038004491
:102B680000440054004400440044003800000000C1
:102B7800001000300050001000100010001000106D
:102B88000000000000380044004400040008001061
:102B98000020007C000000000038004400040018F9
:102BA8000004000400440038000000000008001879
:102BB800002800280048007C0008000800000000E9
:102BC800007C004000400078000400040044003805
:102BD8000000000000380044004000780044004431
:102BE8000044003800000000007C000400080010C9
:102BF80000100020002000200000000000380044E1
:102C0800004400380044004400440038000000003C
:102C18000038004400440044003C000400440038EC
:102C2800000000000000000000100000000000008C
:102C3800000000100000000000000000000000106C
:102C4800000000000000001000100010000000004C
:102C5800000C003000400030000C000000000000B4
:102C6800000000000000007C0000007C0000000064
:102C780000000000000000000060001800040018B8
:102C88000060000000000000003800440004000854
:102C98000010001000000010000000000038004480
:102CA800004C0054005C0040004000380000000068
:102CB80000100028002800280028007C0044004458
:102CC80000000000007800440044007800440044FC
:102CD8000044007800000000003800440040004034
:102CE8000040004000440038000000000070004828
:102CF8000044004400440044004800700000000004
:102D0800007C00400040007C004000400040007C07
:102D180000000000007C00400040007800400040B7
:102D2800004000400000000000380044004000401F
:102D3800005C0044004400380000000000440044E7
:102D48000044007C004400440044004400000000AB
:102D5800003800100010001000100010001000389B
:102D68000000000000040004000400040004000443
:102D78000044003800000000004400480050006093
:102D88000050004800480044000000000040004097
:102D980000400040004000400040007C000000006F
:102DA8000044006C006C005400440044004400449B
:102DB8000000000000440064006400540054004C0B
:102DC800004C004400000000003800440044004467
:102DD800004400440044003800000000007800442B
:102DE800004400440078004000400040000000001B
:102DF80000380044004400440044004400540038B3
:102E080000040000007800440044004400780048B2
:102E18000048004400000000003800440040003032
:102E2800000800040044003800000000007C001086
:102E3800001000100010001000100010000000002A
:102E48000044004400440044004400440044003866
:102E58000000000000440044004400280028002826
:102E6800001000100000000000440044005400540A
:102E78000054006C002800280000000000440028CE
:102E8800002800100010002800280044000000005E
:102E98000044004400280028001000100010001012
:102EA80000000000007C0004000800100010002052
:102EB8000040007C00000000001800100010001006
:102EC8000010001000100010001000180020002052
:102ED800001000100010001000080008000000009A
:102EE800003000100010001000100010001000103A
:102EF80000100030001000280028004400000000E6
:102F080000000000000000000000000000000000B9
:102F18000000000000000000000000FE002000107B
:102F28000000000000000000000000000000000099
:102F38000000000000380044003C0044004C00340D
:102F480000000000004000400058006400440044B5
:102F58000064005800000000000000000038004431
:102F68000040004000440038000000000004000455
:102F78000034004C00440044004C003400000000C1
:102F88000000000000380044007C00400044003885
:102F980000000000000C0010007C00100010001061
:102FA8000010001000000000000000000034004C79
:102FB80000440044004C0034000400780040004005
:102FC800005800640044004400440044000000002D
:102FD8000010000000700010001000100010001019
:102FE8000000000000100000007000100010001029
:102FF80000100010001000E00040004000480050A1
:1030080000600050004800440000000000700010FC
:103018000010001000100010001000100000000048
:10302800000000000078005400540054005400547C
:103038000000000000000000005800640044004444
:103048000044004400000000000000000038004474
:103058000044004400440038000000000000000064
:1030680000580064004400440064005800400040D8
:10307800000000000034004C00440044004C0034C0
:1030880000040004000000000058006400400040F4
:10309800004000400000000000000000003800442C
:1030A8000030000800440038000000000020002024
:1030B80000780020002000200020001800000000F8
:1030C800000000000044004400440044004C003468
:1030D8000000000000000000004400440028002810
:1030E80000280010000000000000000000540054F8
:1030F8000054006C002800280000000000000000B8
:1031080000440028001000100028004400000000BF
:1031180000000000004400440028002800100010AF
:103128000010006000000000007C00080010002073
:103138000040007C00000000001800100010001083
:1031480000200020001000100010001800100010CF
:1031580000100010001000100010001000100010E7
:1031680000300010001000100008000800100010C7
:10317800001000300000000000000074004C000047
:103188000000000000000000000000000000000037
:1031980001020304060708090000000001020304F5
:1031A800232D302B2000686C4C0065666745464728
:1031B80000303132333435363738394142434445AB
:1031C800460030313233343536373839616263641A
:0431D8006566000028
:0431DC0041010008A5
:0431E0001D010008C5
:1031E4000100000010000000070A0000242A000863
:1031F4000024F4001800002000000000000000007B
:1032040000000000000000000000000000000000BA
:1032140000000000000000000000000000000000AA
:10322400000000000000000000000000000000009A
:10323400000000000000000000000000000000008A
:10324400000000000000000000000000000000007A
:08325400000000000000000072
:040000050800209D32
:00000001FF
